:0300000002129158
:0C129100787FE4F6D8FD7581BB0212D80E
:1018F30068656C6C6F002562752C20256275007815
:10190300203D202562752C2079203D20256275001D
:071913006572726F72210082
:1011F30004B80000000088150A0A0A0A0A0A0A0A43
:101203008800000000000000000001540A014401AE
:1012130083080B173B01561020585AFF15A70000EF
:10122300000A00000000FF1B850000000100000011
:1012330000FF1092000000C800000000FF176200CA
:101243000000A000000000FF0003000000C8000031
:101253000000FF1B610000012C00000000FF1B6A5F
:101263000000006400000000FF14EA0000000A0010
:0312730000000078
:101AAB00EF1FAC0670011E4C600A7D0C7CA9DCFE9E
:041ABB00DDFC80ECE2
:011ABF002204
:1015A70012114778B6EFF678B4E66FFE5FFD78B2B2
:1015B700F6EFF45E7846F678B6E678B4F6BD04330F
:1015C700784FE6FE08E6FF7857A60608A6077B00D1
:1015D7007A007957752700752802E4FDFC1216DE9C
:1015E7007B007A0079567527007528017D107C00ED
:0415F7001216DE22C8
:10109200784FE6FA08E6FB7C037DE8FFAE02120514
:1010A200B07815EFF27C007D64AF03AE021205B09A
:1010B2007C007D0A1205B07816EDF2784FE6FA0848
:1010C200E6FB7C007D0AFFAE021205B07C007D0AC1
:1010D2001205B07817EDF27C007D0AAF03AE021262
:1010E20005B07818EDF27852E6FA08E6FB7C037D4B
:1010F200E8FFAE021205B07819EFF27C007D64AF12
:1011020003AE021205B07C007D0A1205B0781AED1A
:10111200F27852E6FA08E6FB7C007D0AFFAE021284
:1011220005B07C007D0A1205B0781BEDF27C007DD3
:101132000AAF03AE021205B0781CEDF27BFF7A18FB
:0511420079F302077DB6
:011B8500223D
:101762007F4312198FEF75F064A4FFAEF07C007D09
:10177200331205B07849A60608A6077F4112198FD1
:10178200EF75F064A4FFAEF07C007D331205B078F3
:0B17920047A60608A6077F660219F3B1
:1000030012179DE4FBFA79C8784212002612016A9E
:08001300784BA60608A607229F
:091B61007BFE7A0079080216955A
:081B6A001217D87851A60722DA
:101AEA00538E7F5389F0438905E4F58AF58CC28DBC
:031AFA00D28C2269
:101AC000538EBF53890F758B18758DFCC28FD28EC4
:051AD000D2ABD2AF22F1
:03001B00020FBF12
:100FBF00C0E0C0F0C083C082C0D075D000C000C0F8
:100FCF0001C002C003C004C005C006C00778B81234
:100FDF00065DEF2401FFE43EFEE43DFDE43CFC78BA
:100FEF00B812067678B706E65407F6E6FF2415F82A
:100FFF00E2FED39414400EEE24D2FDE434FFFC7BCA
:10100F00017A00800E78B7E6FF2415F8E2FD7C0028
:10101F00E4FBFA1215FB785406E6C3940A400276F5
:10102F00007954E7C3784496500B7BFE7A00790021
:10103F0012131D8003121A7C784D0806E6187001F2
:10104F00068606C394E8EE94034017784D760008A1
:10105F007600AF8CEFAD8A08F6ED08F6758C00754B
:10106F008A00300B03785906D007D006D005D0047C
:10107F00D003D002D001D000D0D0D082D083D0F016
:03108F00D0E0327C
:1014EA007845E6605E7859E6C3940A4056C20BE432
:1014FA00F67527FF7528187529F9F52A752B0075D1
:10150A002C22F52D752E00752F237BFE7A00790B80
:10151A00120C08EF64024E7BFF700C7A197902856F
:10152A00222785232880047A19791312077D7845A2
:10153A00E6FF7E007D007BFE7A00790B1206D7E477
:03154A007845F6EB
:01154D00227B
:0300230002148440
:10148400C0E0C0F0C083C082C0D075D000C000C02E
:1014940001C002C003C004C005C006C00730982BB9
:1014A400D20B785976007845E606240BF8E599F2D4
:1014B400C2987845E6D3940A401176007E007F0AEC
:1014C4007D007BFE7A00790B1206D7D007D006D0B8
:1014D40005D004D003D002D001D000D0D0D082D027
:0614E40083D0F0D0E032DD
:05001E0078B376082212
:0B139D00E4F523E523C378B396506904
:1013A80078B812065D8F278E268D258C24E5237547
:1013B800F00BA42461F812065DE52375F00BA42454
:1013C8005DF8120669EB2FFFEA3EFEE93DFDE83CB9
:1013D800FCAB27AA26A925A824C31206324026AFAB
:1013E80027AE26AD25AC24E52375F00BA42461F8BF
:1013F800120676E52375F00BA4245AF808E6FA08D5
:05140800E6F91206D117
:04140D000523808FA4
:0114110022B8
:1014120012191A7B007A0079227528007529017D3C
:10142200107C0012164BE5227856667031FB7A006A
:101432007955F528752901FDFC12164B7B007A00BF
:1014420079B57528007529017D017C0012164B784B
:1014520055E6FE78B5E6FDEE7852F6ED08F612177F
:101462009D7FEE7E02121AAB7BFE7A00790812157E
:101472004E121A94121AEA12001E121AC012139D68
:0214820080FBED
:10191A007580FFE5A0541FFF4307E08FA0E5A054A0
:10192A001FF5A0E4F580E5A0541FFF4307A08FA090
:06193A00E5A0541FF5A01A
:011940002284
:10114700E4FF20B00122C2C4D2C2D2B5D2B420B0CB
:10115700027F0720B1027F0620B2027F0520B3027B
:101167007F04D2C4D2C2D2B5D2B420B0037F00224A
:10117700D2C4C2C2D2B5D2B420B0027F0B20B10212
:101187007F0A20B2027F0920B3027F08D2C4D2C2ED
:10119700D2B5D2B420B0037F0022D2C4D2C2C2B526
:1011A700D2B420B0027F0F20B1027F0E20B2027F9F
:1011B7000D20B3027F0CD2C4D2C2D2B5D2B420B0B4
:1011C700037F0022D2C4D2C2D2B5C2B420B0027FFC
:1011D7001320B1027F1220B2027F1120B3027F10C9
:0B11E700D2C4D2C2D2B5D2B443B0EFE4
:0111F20022DA
:0E1276000C08C0F9A4B0999282F88090FFBFD6
:1015FB007580FFE5A0541FFE4306E08EA0E5A054C6
:10160B001FFEF5A0A8077401088002C333D8FCF5B0
:10161B0080E5A0541FFE4306C08EA0E5A0541FF525
:10162B00A074082DF8E6F580EB4A600353807FE544
:0F163B00A0541FFE4306E08EA0E5A0541FF5A0AB
:01164A00227D
:0C1284000115000117FF0116000118FF02
:10131D00E47815F690000112054F25E0FF12053611
:10132D004FFF90000212054F25E025E04FFF900082
:10133D000312054F33333354F84FFF900004120559
:10134D004FC454F04FFF90000512054FC43354E0C5
:10135D004FFF90000612054FC4333354C04FFF901A
:10136D00000712054FC433333354804F7815F67888
:10137D001766601B7815E6FFF4F580E5A0541FFE97
:0F138D004306808EA0E5A0541FF5A07817A60791
:01139C00222E
:101A7C007580FFE5A0541FFF4307808FA0E5A0549D
:071A8C001FF5A0E47817F636
:011A93002230
:101810007816E6300C054410F6800354EFF679187C
:10182000E77816666018E6FFF580E5A0541FFE43D2
:0E18300006A08EA0E5A0541FF5A07818A6070C
:01183E002287
:10183F007816E6300D054420F6800354DFF679184C
:10184F00E77816666018E6FFF580E5A0541FFE43A3
:0E185F0006A08EA0E5A0541FF5A07818A607DD
:01186D002258
:10186E007816E6300E054440F6800354BFF679181C
:10187E00E77816666018E6FFF580E5A0541FFE4374
:0E188E0006A08EA0E5A0541FF5A07818A607AE
:01189C002229
:101A9400759850438E01538EFB75D7E675D6FF4378
:071AA4008E10D2ACD2AF227C
:081B72008F993099FDC2992200
:051B7A00007F03DFFE07
:011B7F002243
:101AD500C2AFE4FED290121B7AC290121B7A0EBEE0
:041AE50008F2D2AF82
:011AE90022DA
:1017D800E4F5D9F5F9F5E9121AD5D2DE30910330DE
:1017E800DFFAC2DE20DF1CAFF9EFFEADE9EDFFAC9A
:1017F80006E41201317B967A43798B783C120026F5
:0718080002016AC2DF7F004C
:01180F0022B6
:101941007FFF1219527FFF1219527FFF1219527F26
:01195100FF96
:10195200000000000000000000000000000000AED7
:06196200071FEE70EB22EE
:101AFD00D2A1D2A07F05121952C2A17F051219528F
:031B0D00C2A02251
:101B4700C2A1D2A07F05121952D2A17F0502195254
:02189D00AD0795
:10189F00E4FCC2A07F05121952ED30E704D2A180FB
:1018AF0002C2A17F05121952D2A0ED25E0FD7F05DE
:0918BF001219520CBC08DBC2A096
:0118C80022FD
:1019B400E4FCD2A07F05121952ED25E0FD30A1030D
:1019C400430501C2A07F051219520CBC08E4AF05FF
:0119D40022F0
:1018C900AB05AA04121AFD7FA012189D1218DDAFEC
:0418D9000312189D41
:1018DD00D2A07F05121952A2A1E433FDC2A07F054B
:0518ED00121952AF05C5
:0118F20022D3
:101A1000C2A0EF24FF92A17F05121952D2A07F0528
:0C1A2000121952C2A0D2A17F0502195277
:02198F00AB07A4
:10199100121AFD7F901218D2121AFD7F9112189D12
:1019A1001218DD1219B4AD077F01121A10121B476C
:0219B100AF0580
:0119B3002211
:1019F300AB07121AFD7F9012189D1218DD7F41125A
:0D1A0300189D1218DDAF0312189D0218DDAA
:10164B008B238A2489251218C9121AFD7FA112181F
:10165B009D1218DDE5291529AE28700215284E605C
:10166B00261219B4AB230525E525AA2470020524FF
:10167B0014F9EF12057CE52945286004E4FF80028C
:0A168B007F01121A1080CD021B47E8
:1016DE008B228A2389241218C9E5281528AE277073
:1016EE000215274E601FAB220524E524AA237002A3
:1016FE00052314F9120536FF12189D1218DD7FC846
:10170E0012195280D4121B471219417FFF1219521F
:08171E001219417FFF0219526C
:041A48007F057E0098
:101A4C00EF1FAA0670011E4A600BE4FDEDC3940C57
:051A5C0050EE0D80F7C3
:011A61002262
:0219D500A90760
:1019D700E4FBC294E9139294121A48D294E9C31310
:0C19E700F90BBB08ED7F057E00021A4CD6
:101A6200E4FBC294ECC313FCD2943094034304808D
:091A7200121A480BBB08EBAF048B
:011A7B002248
:10196800C200D2947F0C7E00121A4CC2947F507E23
:1019780000121A4CD2947F0A7E00121A4CA294923A
:0619880000121A48A20043
:01198E002236
:10179D001219687FCC1219D57F441219D57FC87ED6
:1017AD0000121A4C1219687FCC1219D57FBE12196E
:1017BD00D5121A62A907121A62EFAD01FCEC1201E3
:0B17CD0031E4FBFA7980783D02002631
:101B1000E4FEC297EF1392A3EFC313FFD2970EBE5A
:021B200008F0CB
:011B220022A0
:081A2C0075F00A84EE25F0FDBF
:101A3400C29300C29700D29300121B10AF05121B71
:041A440010C2932217
:08172600C4540F75F00AA4FC85
:10172E00E4FDC29300C29700D29300121B10E4FF97
:10173E00C297EDC313FD30A303430580D2970FBFAD
:10174E0008EEC29300C29700D29700C2A300D2A3A4
:03175E0000AF05D4
:011761002265
:10154E00E4FD7F8E121A347D807F80121A341205CC
:10155E0036FF75F00A84C454F0FEEF7F84121A2C05
:10156E0090000112054FFF75F00A84C454F0FEEF8F
:10157E007F82121A2C90000212054FFF75F00A841A
:10158E00C454F0FEEF75F00A84EE25F0FD7F801254
:09159E001A347D807F8E021A349C
:10169500C2AF7F8512172EEF7F85121726EF540FE5
:1016A5002C12057C7F8312172EEF7F83121726EFEE
:1016B500540F2C90000112058E7F8112172EEFC456
:1016C500540F75F00AA4FC7F8112172EEF540F2CCE
:0916D50090000212058ED2AF2232
:10002600EC4D6011E8497017ED33EC3304600DE4D4
:10003600FCFFFEFD22E933E8330470F80201D61214
:1000460001A158046009E4CC248150062850090215
:1000560001E02840030201DDC0E0EB4A7044B980AC
:1000660006D0E0FB0201CCEF4E701CBD8008EBFF12
:10007600EAFEE9FD80EBE98DF0A4FEE5F002010F52
:10008600E9CDF9EAFEEBFFEF89F0A4FCE5F0CE89B5
:10009600F0A42EFFE435F0CD89F0A42DFEE435F072
:1000A6008067EF4E7005BD80D780C3EF8BF0A4ACA0
:1000B600F0EE8BF0A42CFCE435F0F8EF8AF0A42CDB
:1000C600E5F038FCE433CB8DF0A42CFCE5F03BF8EE
:1000D600EE8AF0A42CFCE5F038F8E433CF89F0A4DE
:1000E6002CFCE5F038CF3400CE89F0A42FFFE5F0E4
:1000F6003EFEE433C98DF0A42EFEE5F039CD8AF03C
:10010600A42FFFE5F03EFEE43DFD33D0E0FB5007B3
:100116000BBB000F0201E0EC2CFCEF33FFEE33FECD
:06012600ED33FD0201B8FB
:10012C0075F020800E75F010800575F0087D007E4E
:10013C00007F003392D530D503120624EC334010E7
:10014C00EF33FFEE33FEED33FDEC33FCD5F0ED2257
:0E015C00E5F0247EA2D513CC92E7CDCEFF2293
:10016A00EDD2E7CD33EC3392D524814006E4FFFE8D
:10017A00FDFC22FCE4CFCECDCC24E0501174FF80EC
:10018A00EDC3CC13CCCD13CDCE13CECF13CF047089
:07019A00F030D5DE0206245F
:10071B00E53B2427F8E6053B2278243007027827AF
:10072B00E475F00112068B0205362000EB7F2ED20A
:10073B00008018EF540F2490D43440D4FF30040BB6
:10074B00EF24BFB41A0050032461FFE53C6002158F
:10075B003C053FE53F7002053E30070D7824E475FC
:10076B00F00112068BEF02057C021B727403D20799
:10077B008003E4C207F53B8B248A258926E4F53CEC
:10078B00F53EF53FE53C60077F2012075680F57577
:10079B003DFFC201C200C202C203C205C206C208AB
:1007AB00120724FF700D3007057F00120767AF3F5C
:1007BB00AE3E22B4255FC2D5C204120724FF24D05B
:1007CB00B40A00501A75F00A783C30D50508B6FF0C
:1007DB000106C6A426F620D5047002D20380D924C4
:1007EB00CFB41A00EF5004C2E5D204020A54D2016E
:1007FB0080C6D20080C0D20280BCD2D580BAD205CE
:10080B0080B47F201207562002077401B53C0040CC
:10081B00F112071BFF12075602078FD208D2068070
:10082B009512071BFB12071BFA12071BF94A4B7099
:10083B0006794B7A0B7BFF20022EE53C602A7E006B
:10084B008E8275830012054F60060EEE653D70F0CB
:10085B00C2D5EBC0E0EAC0E0E9C0E0EE120AB4D0CA
:10086B00E0F9D0E0FAD0E0FB120536FF60AAEBC04E
:10087B00E0EAC0E0E9C0E0120756D0E02401F9D06D
:10088B00E03400FAD0E0FBE53D0460DCD53DD980D7
:10089B0087D20280A2120A9760F7E53D700104121D
:1008AB0001EBA93D600DE53D600914F53D120B3ED2
:1008BB00EF60F3EA30E702F404C3995077EAF425CA
:1008CB003D0430E701E404F53D800D120A9760C149
:1008DB00EA053D253D1201EBEA783AF630E701E4F3
:1008EB00253D04D53D0420050114120AB4E4C0E0F3
:1008FB00120B3E783AE6601320E70714F612073E18
:10090B00802204F6D0E014C0E07F0012073EE53DE4
:10091B006007120735153D800B300503120735D0E4
:10092B00E002078FD0E00480C5120A9760A0E53D76
:10093B00041201EB783AEAF6E53D2005026001046A
:05094B002404120AB4AF
:1009500074FF04C0E0120B3E12073EE53D20050285
:100960006003120735D0E0B53DE87F4512074878AF
:100970003AE67F2B30E7047F2DF404C0E0120756DF
:10098000D0E075F00A84C0F012073FD0E012073FB4
:1009900002078F791080027908C206C2088008D247
:1009A000D5790A8004790AC2D5E53D047002F53D87
:1009B000E4FAFDFEFF12071BFC7B0820011312075F
:1009C0001BFD7B1030000A12071BFE12071BFF7B6A
:1009D00020EC3382D592D55013C3E43000069FFF3C
:1009E000E49EFEE42001039DFDE49CFCE4CBF8C200
:1009F00001EC700CCFCECDCCE824F8F870F3801762
:100A0000C3EF33FFEE33FEED33FDEC33FCEB33FB92
:100A1000994002FB0FD8E9EB300105F8D0E0C4485B
:100A2000B201C0E00AEC4D4E4F78207B0070C2EA64
:100A3000B53D0040BCC0E0120AB6D0F0D0E02001C5
:100A400004C4C0E0C4B201C0F012073FD0F0D5F03A
:100A5000EB02078F1206AB082C5309935807FD4C85
:100A600007F94209974F099F44099F490812430912
:100A7000A55508D64609344508A0470B6B50080118
:100A80002D08052E08282B0809230826200B542A98
:100A900007C14800000820E53DB4FF03753D06127C
:100AA000071BFC12071BFD12071BFE12071BFF781A
:100AB0003302021A790AA2D5200314300509B910AD
:100AC000020404B9080104A2D52006025001042042
:100AD00002689202B53C005034C0E07F2030031918
:100AE0007F30A20272067205500F120B0DC202C2B5
:100AF00006C205C2087F30800F300503E9C0E0124E
:100B00000756300503D0E0F9D0E0B53CCC300517EE
:100B10007F30B9100C1207567F583004077F788059
:100B200003B908031207563002057F2D0207567FCE
:100B3000202008F87F2B2006F322920280CF7F002E
:100B4000B4070050052433F8E6FF22286E756C6C5C
:100B50002900D20112071B3001F8C201783C30D5C0
:100B60000108F60207C12D5043495812071B240300
:100B7000B405004001E4900B6693120747743A12E3
:0A0B80000747D203753C04020993F5
:100B8A00E53930030104F823282427F82278243091
:100B9A0003027827E475F00112068B02053660EC31
:100BAA00C53D7002153C14C53D200304FF021B809D
:100BBA00782474FFF5F002069BFF021B23E53A60D6
:100BCA0006D53A037F002220030F121B36EF600876
:100BDA00053DE53D7002053C227824120682120585
:100BEA0036FF60E97824E475F00112068B80DE1284
:100BFA000BD1EFC0E0120BC3D0E040F380A0D203C8
:100C0A008002C2038B248A258926E4F53BF539F54F
:100C1A003CF53D753A00C202C200C201C204120B81
:100C2A0097FF7005AF3B7E0022B42530120B97FF69
:100C3A0024D0B40A00500C75F00AC53AA4253AF536
:100C4A003A80E924CFB41A00EF5002C2E5020EA599
:100C5A00D20180D8D20080D4D20480D0EF120BC344
:100C6A005008120BF9EF600E80A9EFC0E0120BD109
:100C7A00D0E06F609EEF6074120BA880A7120BD1B0
:100C8A00EF6069E53A7007053A8003120BD1EF600D
:100C9A001420040E120B8AE475F00112068BEF126F
:100CAA00057CD53AE62004040539053B80BA120BC7
:100CBA00C7EFC0E0120BC3D0E05004120BA8E4FF48
:100CCA0020040E120B8AE475F00112068BEF12054E
:100CDA007CEF70DA2004040539053B808BE53A6025
:100CEA0002053A120BF9120BC7EF70C6300304E47F
:100CFA00120BA8E53B6003020C2E7EFF7FFF22E564
:100D0A003A6002053A120BF9D206D205120BC7EF66
:100D1A0030060260D7C0E0120BA8D0E0AC3EAD3F6F
:100D2A00AE40AF41120EEC8C3E8D3F8E408F41504B
:100D3A0007120BD1C20580D4200410200502053BFE
:080D4A00120B8A120682053922
:100D5200120643020C1DD0E0809A7900800A7910B5
:100D6200800679088002790AD205E53A6002053ADE
:100D7200E9C0E0120BF9EF60DD120BD1BF2D04D2F6
:100D8200028003BF2B09120BF9EF60CA120BC7D006
:100D9200E0B40A028033B40802802EBF302770020A
:100DA2007408C205C0E0120BC7D0E0BF780280030E
:100DB200BF5816053AD53A028007D53A04D20580C3
:100DC2000B741080197002740ABF000AEFF8E4FC79
:100DD200FDFEFF020E58C0E0EF120BA8D0E0F9E4CE
:100DE200FCFDFEFFE9C0E0ECC0E0EDC0E0EEC0E0DB
:100DF200EFC0E0120BC7EFF8D0E0FFD0E0FED0E08A
:100E0200FDD0E0FCD0F0E8604DB461004007B47B57
:100E1200005002C2E524D0503DFA24F6500724F9CE
:100E22005034240AFAEAB5F000502BCFA9F0A42FCF
:100E3200FF92D5E9C5F0CEA4A2D53EFE92D5E9C572
:100E4200F0CDA4A2D53DFD92D5E9C5F0CCA4A2D5A2
:100E52003CFCC205808EE8C0E020042A200508057B
:100E62003B300203120624120B8A12068205392035
:100E7200000B20010DEE8FF01206058009120643C9
:100E82008004EF12057CD0E0120BA8020C1D200496
:100E920010120B8A1206820539E53C853DF01206D6
:100EA2000580E81206AB0CE7530D60580C5E4C0C43
:100EB2005A420C36480D644F0D68440C87430D5C52
:100EC200490D68550D09460D09450D09470C622A61
:070ED2000E904E00000C66BB
:1001A100E9D2E7C933E833F892D5EDD2E7CD33ECA4
:0701B10033FC5002B2D5221D
:1001B800EC30E7100FBF000C0EBE00080DBD0004A8
:1001C8000BEB6014A2D5EB13FCED92E7FD2274FF54
:1001D800FCFDFEFF22E480F8A2D574FF13FC7D80AD
:0301E800E480EFC1
:1001EB00F920E72824F950037907E4F42402FB18DB
:1001FB00DBFDE624FB5014E9600DE4F618E604F68B
:0F020B00B40A08E4F6D9F57401F60A22C2D52226
:10021A00ED33EC3392D5FA602AB4FF33EDC2E77BB3
:10022A00FF60067A02793FE4227A02794820D504EF
:10023A007A027943224E614E002B494E46002D49DF
:10024A004E4600E47A08F608DAFC7B00740722E8D6
:10025A00C0E0ECC0E0EDC0E0EEC0E0EFC0E0EA755F
:10026A00F010A4CAABF075F04DA42BFBE435F0FCFA
:10027A00EA2410FAEB34C5FBEC34D9FCEDC2E7FFF3
:10028A0075F056A4F42411C5F0F434C58FF0A42AED
:10029A00E5F03BE43CF620E7141204F6D0E0FFD088
:1002AA00E0FED0E0FDD0E0FC1204188014F4041241
:1002BA0004F6D0E0FFD0E0FED0E0FDD0E0FC120072
:1002CA0026D0E0F8E6FAEDD2E7CD33EC332482FB10
:1002DA00E4C3CF33CFCE33CECD33CD33DBF37B077D
:1002EA0075F00A846004F6081B0AE5F0F6088FF038
:1002FA00740AA4FFACF08EF0740AA42CFEACF05081
:10030A00010C8DF0740AA42CFDE435F0F608DBDE4E
:03031A0074072243
:100ED900C207C208C209C20AF9E4F542F543FCFD9A
:100EE900FEFFE91006EA20090CB42D04D209D32229
:100EF900B42B02D32224D0504794095041240A30FC
:100F09000A15F88543F0740AA42872E74051C5F020
:100F1900704D85F043D322D208C0E0E4FBFA792072
:100F29007841120026ECF8EDF9EEFAEFFBD0E0FC7F
:100F3900E41201361203243007B41542D322240ADD
:100F4900200A20B4FE0720071AD207D32224EB6017
:100F59000424E0700EA2099207D20AC209D322C35F
:100F69000201D6E4300A0BE543300902F404A20772
:100F790092093008EA254220D2E5A2E7920A5002F6
:100F8900F404B4260050D8CCC0E0EDC0E0EEC0E0D7
:100F9900EFC0E0EC1204F6D0E0FFD0E0FED0E0FDB7
:100FA900D0E0FC200A05120026800312041830093B
:060FB900031204B5C3227F
:10031D000201D6E86480F8E933E83360110460F037
:10032D00ED33EC337009E8FCE9FDEAFEEBFF220446
:10033D0060DED3EB9FEA9EE99DE8C2E78CF0C2F741
:10034D0095F0400CE8CCF8E9CDF9EACEFAEBCFFB0D
:10035D001201A185D0F05804700320D5B3E80470C4
:10036D00075002B2D50201E092D5EC0460F7E4CC5F
:10037D00C0E0C398F8603B94186008400DD0E0FBD6
:10038D000201B8E4FBFAC9FC8028E830E406E4C9B0
:10039D00FBE4CAFCE830E305E4C9CACBFCE854072A
:1003AD006010F8C3E913F9EA13FAEB13FBEC13FC35
:1003BD00D8F130F52FC3E49CFCEF9BFFEE9AFEEDD8
:1003CD0099FDD0E0FBEF4E4D4C701222DB03020184
:1003DD00DDEC2CFCEF33FFEE33FEED33FDED30E7BE
:1003ED00EB0201B8EF2BFFEE3AFEED39FDD0E0FB4D
:1003FD0050130BBB00030201E0ED13FDEE13FEEFF6
:08040D0013FFEC13FC0201B81F
:100415000201E0EC5D046005E8590470030201D6B1
:100425001201A1580460F6EC4860F2EC7004FDFE80
:10043500FF22C860DB2481C85009C39860025006BA
:100445000201DD9850CAF582E9294B4A7005AB8255
:100455000201CC75F0007C1A7880C3EF9BEE9AED13
:1004650099400DC3EF9BFFEE9AFEED99FDE842F032
:10047500DC23ACF0D0E0FFD0E0FED0E0FDAB822085
:10048500E7101BEB60BAEC2CFCEF33FFEE33FEED0F
:1004950033FD0201B8E803F830E705C0F075F00058
:1004A500EF2FFFEE33FEED33FD40B830E7C280AAF3
:1004B500ED33EC33600A047003BD8004ECB2E7FC55
:0104C5002214
:1004C6003F8000004120000042C80000447A00003E
:1004D600461C400047C35000497424004B189680C0
:1004E6004CBEBC205A0E1BCA6753C21C749DC5AEB7
:1004F600FB60065407601C2323120524EB54386066
:100506000912051012051F120026ECF8EDF9EEFA95
:10051600EFCB22EB12051F80F1543803241C900404
:10052600C6FE93FC0EEE93FD0EEE930ECE93FF22C7
:10129D00021412E493A3F8E493A34003F68001F241
:1012AD0008DFF48029E493A3F85407240CC8C33352
:1012BD00C4540F4420C8834004F456800146F6DF21
:1012CD00E4800B01020408102040809011F3E47EAD
:1012DD00019360BCA3FF543F30E509541FFEE49316
:1012ED00A360010ECF54C025E060A840B8E493A3DD
:1012FD00FAE493A3F8E493A3C8C582C8CAC583CA08
:10130D00F0A3C8C582C8CAC583CADFE9DEE780BEBF
:01129000005D
:10053600BB010689828A83E0225002E722BBFE02C3
:09054600E32289828A83E49322F6
:10054F00BB010CE58229F582E5833AF583E0225061
:10055F0006E92582F8E622BBFE06E92582F8E222AB
:0D056F00E58229F582E5833AF583E49322C5
:10057C00BB010689828A83F0225002F722BBFE015E
:02058C00F32258
:10058E00F8BB010DE58229F582E5833AF583E8F0A3
:10059E00225006E92582C8F622BBFE05E92582C84F
:0205AE00F22237
:1005B000BC000BBE0029EF8DF084FFADF022E4CC2F
:1005C000F875F008EF2FFFEE33FEEC33FCEE9DECF8
:1005D000984005FCEE9DFE0FD5F0E9E4CEFD22ED3E
:1005E000F8F5F0EE8420D21CFEADF075F008EF2F88
:1005F000FFED33FD4007985006D5F0F222C398FD79
:050600000FD5F0EA2215
:10060500BB010A89828A83F0E5F0A3F0225006F740
:0F06150009A7F01922BBFE06F3E5F009F319223D
:0E062400C3E49FFFE49EFEE49DFDE49CFC22E7
:10063200EB9FF5F0EA9E42F0E99D42F0E89C45F01E
:010642002295
:10064300BB010789828A830207035005E9F8020682
:0A06530076BBFE05E9F802070F224E
:0C065D00E6FC08E6FD08E6FE08E6FF22C9
:0D066900E6FB08E6F908E6FA08E6CBF82201
:0C067600ECF608EDF608EEF608EFF622B0
:09068200E6FB08E6FA08E6F9229D
:10068B00FAE6FB0808E6F925F0F618E6CA3AF62270
:10069B00FAE6FB0808E625F0F9F618E63AFAF62230
:1006AB00D083D082F8E4937012740193700DA3A3DE
:1006BB0093F8740193F5828883E4737402936860F2
:0606CB00EFA3A3A380DFF2
:0606D1008A838982E473B4
:101B3600100F0B121B57BF0D027F0A021B72AF1448
:011B4600227C
:051B80008F14D20F22BA
:101B2300EFC394094005EF940E4003BF2003D38015
:031B330001C322C9
:1006D700EF4E6012EF60010EEDBB010B89828A833A
:1006E700F0A3DFFCDEFA2289F05007F709DFFCA947
:0C06F700F022BBFEFCF309DFFCA9F0229E
:0C070300ECF0A3EDF0A3EEF0A3EFF02269
:0C070F00ECF208EDF208EEF208EFF22226
:0A1B57003098FDAF99C2987E00227D
:00000001FF
