:1006F10088150A0A0A0A0A0A0A0A88000000000084
:10070100000000008312173B378A08000000000038
:100711000000000000205839FF0B6B0000000A00A8
:10072100000000FF0330000000C800000000FF0EC1
:10073100E40000000100000000FF0D1E0000000A9F
:1007410000000000FF0ED90000006400000000FF5F
:100751000EED000000C800000000FF0B3400000097
:10076100C800000000FF0003000000C800000000F6
:100B6B0012064C7894EFF618E66FFE5FFD7891F65F
:100B7B00EFF45E782AF67894E618F6ED24FC701400
:100B8B007837E62401FFE433FE7C007D0512026515
:050B9B007837A60522D9
:100330007837E61470030203FC14700302045C14A3
:1003400070030204A1147003020527240460030251
:10035000059F7817740AF218F218F2782FE6FE0853
:10036000E6FFC39410EE942740127C277D10120202
:10037000657C007D0A120265AF0580027F0A78184D
:10038000EFF2782FE6FE08E6FFC394E8EE94034010
:10039000127C037DE81202657C007D0A120265AFC3
:1003A0000580027F0A7819EFF2782FE6FE08E6FF53
:1003B000C39464EE940040127C007D641202657C5C
:1003C000007D0A120265AF0580027F0A781AEFF2FB
:1003D000782FE6FE08E6FFC3940AEE940040127CF4
:1003E000007D0A1202657C007D0A120265AF05805D
:1003F000027F0A781BEFF2782F02058F7819740AB2
:10040000F218F218F218F218F27831E6FE08E6FF58
:10041000C39464EE940040127C007D641202657CFB
:10042000007D0A120265AF0580027F0A781AEFF29A
:100430007831E6FE08E6FFC3940AEE940040127C91
:10044000007D0A1202657C007D0A120265AF0580FC
:10045000027F0A781BEFF2783102058F781A740B4D
:10046000F27817F27812E2FF75F00A847815F2EF4D
:1004700075F00A8408E5F0F27813E2FF75F00A845B
:100480007818F2EF75F00A8408E5F0F27814E2FFCC
:1004900075F00A84781BF2EF75F00A8408E5F0F233
:1004A000227819740AF27815F27833E6FA08E6FB36
:1004B0007C007D64FFAE021202657C007D0A1202A0
:1004C00065ED242E7816F27C007D0AAF03AE021291
:1004D00002657C007D0A1202657817EDF27833E63A
:1004E000FE08E6FF7C007D0A1202657818EDF278BE
:1004F00035E6FA08E6FB7C007D64FFAE0212026579
:100500007C007D0A120265ED242E781AF27C007DB3
:100510000AAF03AE021202657C007D0A1202657802
:100520001BEDF2783580687818740AF218F218F228
:1005300018F2782BE6FE08E6FFC394E8EE94034039
:10054000127C037DE81202657C007D0A120265AF11
:100550000580027F0A7819EFF2782BE6FA08E6FBAD
:100560007C007D64FFAE021202657C007D0A1202EF
:1005700065ED242E781AF27C007D0AAF03AE0212DC
:1005800002657C007D0A120265781BEDF2782BE68D
:10059000FE08E6FF7C007D0A120265781CEDF2225F
:090EE4007BFE7A00790002081877
:100D1E007829E6FF601B7838E6C3940A4013C202B6
:100D2E00E4F6FEFD7BFE7A007908120304E47829CE
:020D3E00F6229B
:03002300020908C7
:10090800C0E0C0F0C083C082C0D075D000C000C0B5
:1009180001C002C003C004C005C006C00730982B40
:10092800D202783876007829E6062408F8E599F2A4
:10093800C2987829E6C3940A401176007E007F0A9F
:100948007D007BFE7A007908120304D007D006D018
:1009580005D004D003D002D001D000D0D0D082D0AE
:0609680083D0F0D0E03264
:0B0ED900120AC37831A60608A6072203
:090EED007BFE7A007912020AFC76
:100B34007F43120CD6EF75F064A4FFAEF07C007D09
:100B4400331202657833A60608A6077F41120CD635
:100B5400EF75F064A4FFAEF07C007D33120265787B
:070B640035A60608A60722D2
:10000300120A88E4FBFA79C8784212002612016AC0
:08001300782BA60608A60722BF
:100E9000538E7F5389F0438905E4F58AF58CC28D22
:030EA000D28C22CF
:100E5200538EBF53890F758B18758DFCC28FD28E3E
:050E6200D2ABD2AF226B
:03001B000205A03B
:1005A000C0E0C0F0C083C082C0D075D000C000C021
:1005B00001C002C003C004C005C006C0077896127F
:1005C00002D9EF2401FFE43EFEE43DFDE43CFC786B
:1005D000961202F2789506E65407F6E6FF2415F81F
:1005E000E2FED394144008EE24D2FDD200800B78B2
:1005F00095E6FF2415F8E2FDC2001209BB782D082C
:1006000006E6187001068606C394E8EE9403401BC4
:10061000782D7600087600C28CAF8CEFAD8A08F694
:10062000ED08F6758C00758A00D28C30020378389C
:1006300006D007D006D005D004D003D002D001D018
:0C06400000D0D0D082D083D0F0D0E032C7
:05001E00789276082233
:0B089600E4F521E521C378929650663E
:1008A10078961202D98F258E248D238C22E521750D
:1008B100F00BA42440F81202E5C3E5259BFFE524D3
:1008C1009AFEE52399FDE52298FCE52175F00BA43C
:1008D100243CF81202E5D31202C85026AF25AE24FB
:1008E100AD23AC22E52175F00BA42440F81202F2ED
:1008F100E52175F00BA42439F808E6FA08E6F912A7
:0209010002FEF4
:0409030005218092B8
:0109070022CD
:100DD400120CFB7BFE7A00791212096E120E90122D
:0A0DE4000E5212001E12089680FB4A
:100CFB007580FFE5A0541F44E0F5A0E5A0541FF557
:100D0B00A0E4F580E5A0541F44A0F5A0E5A0541F76
:020D1B00F5A041
:010D1D0022B3
:10064C00E4FF20B0030206F0C2C4D2C2D2B5D2B4C9
:10065C0020B0027F0720B1027F0620B2027F052066
:10066C00B3027F04D2C4D2C2D2B5D2B430B075D2E8
:10067C00C4C2C2D2B5D2B420B0027F0B20B1027F6B
:10068C000A20B2027F0920B3027F08D2C4D2C2D2A0
:10069C00B5D2B430B04ED2C4D2C2C2B5D2B420B0EE
:1006AC00027F0F20B1027F0E20B2027F0D20B30219
:1006BC007F0CD2C4D2C2D2B5D2B430B027D2C4D2FD
:1006CC00C2D2B5C2B420B0027F1320B1027F122077
:1006DC00B2027F1120B3027F10D2C4D2C2D2B5D2E3
:0406EC00B443B0EF74
:0106F00022E7
:0E0771000C08C0F9A4B0999282F88090FFBFE6
:1009BB007580FFE5A0541F44E0F5A0E5A0541FFE91
:1009CB00F5A0A8077401088002C333D8FCF580E5B5
:1009DB00A0541F44C0F5A0E5A0541FF5A074082D2A
:1009EB00F8E6F58030000353807FE5A0541F44E008
:0809FB00F5A0E5A0541FF5A0D2
:010A030022D0
:0C077F00019A00019CFF019B00019DFFFE
:10081800E4789AF690000112020425E0FF1201EB39
:100828004FFF90000212020425E025E04FFF9000E0
:100838000312020433333354F84FFF9000041202BA
:1008480004C454F04FFF900005120204C43354E06E
:100858004FFF900006120204C4333354C04FFF9078
:100868000007120204C433333354804F789AF67861
:100878009C666019789AE6FFF4F580E5A0541F4459
:0D08880080F5A0E5A0541FF5A0789CA60700
:010895002240
:060D9C008B268A2789283E
:100DA2007580FFE5A0541F4480F5A0E5A0541FF50F
:050DB200A0E4789CF6AE
:010DB7002219
:100BD400789BE63003054410F6800354EFF6799DC4
:100BE400E7789B666016E6FFF580E5A0541F44A0F5
:0C0BF400F5A0E5A0541FF5A0789DA60711
:010C000022D1
:100C0100789BE63004054420F6800354DFF6799D95
:100C1100E7789B666016E6FFF580E5A0541F44A0C7
:0C0C2100F5A0E5A0541FF5A0789DA607E3
:010C2D0022A4
:100C2E00789BE63005054440F6800354BFF6799D67
:100C3E00E7789B666016E6FFF580E5A0541F44A09A
:0C0C4E00F5A0E5A0541FF5A0789DA607B6
:010C5A002277
:100E3B00759850438E01538EFB75D7E675D6FF43DD
:070E4B008E10D2ACD2AF22E1
:080EF6008F993099FDC2992289
:050EFE00007F03DFFE90
:010F030022CB
:100E6700C2AFE4FED290120EFEC290120EFE0EBE6C
:040E770008F2D2AFFC
:010E7B002254
:100AC300E4F5D9F5F9F5E9120E67D2DE309103307A
:100AD300DFFAC2DE20DF1CAFF9EFFEADE9EDFFACBC
:100AE30006E41201317B967A43798B783C12002617
:080AF30002016AC2DFE4FEFF0C
:010AFB0022D8
:100EA300E4FEC297EF1392A3EFC313FFD2970EBED4
:020EB30008F045
:010EB500221A
:100E7C00C29300C29700D29300120EA3AF05120EBC
:040E8C00A3C2932248
:100BA000E4FDC29300C29700D29300120EA3E4FFAB
:100BB000C297EDC313FD30A303430580D2970FBF47
:100BC00008EEC29300C29700D29700C2A300D2A33E
:030BD00000AF056E
:010BD30022FF
:06096E008B218A2289237F
:10097400E4FD7F8E120E7C7D807F80120E7CE4FC71
:10098400EC25E0FFC374849FFFAB21AA22A9238C2A
:1009940082758300120204FE75F00A84C454F0FDCB
:1009A400EE75F00A84ED25F0FD120E7C0CBC03D02C
:0709B4007D807F8E020E7CA6
:060AFC008B218A228923F0
:100B0200C2AFE4FCEC25E0FFC374859FFF120BA08B
:100B1200EFC4540F75F00AA4FEEF540F2EAB21AAB6
:100B220022A9238C827583001202430CBC03D5D206
:010B3200AF13
:010B3300229F
:100E22007FFF120E337FFF120E337FFF120E337FCE
:010E3200FFC0
:080E330000AE071FEE70F9226A
:100EB600D2A1D2A07F05120E33C2A17F05120E3336
:030EC600C2A022A5
:100EC900C2A1D2A07F05120E33D2A17F05020E3333
:020C5B00AD07E3
:100C5D00E4FCC2A07F05120E33ED30E704D2A18073
:100C6D0002C2A17F05120E33D2A0ED25E0FD7F0556
:090C7D00120E330CBC08DBC2A00E
:010C8600224B
:100D4000E4FCD2A07F05120E33ED25E0FD30A103B7
:100D5000430501C2A07F05120E330CBC08E4AF05A9
:010D60002270
:100C8700AB05120EB67FA0120C5B120C99AF0312C4
:020C97000C5BF4
:100C9900D2A07F05120E33A2A1E433FDC2A07F05C5
:050CA900120E33AF053F
:010CAE002223
:100DB800C2A0EF24FF92A17F05120E33D2A07F05B7
:0C0DC800120E33C2A0D2A17F05020E3330
:020CD600AB076A
:100CD800120EB67F90120C8E120EB67F91120C5B1C
:100CE800120C99120D40AD077F01120DB8120EC9F2
:020CF800AF0546
:010CFA0022D7
:100D7F00AB07120EB67F90120C5B120C997F4012CC
:0D0D8F000C5B120C99AF03120C5B020C9967
:100A04008B148A158916120C87120EB67FA1120C4C
:100A14005B120C99AF181518EF6024120D40AB143B
:100A24000516E516AA157002051514F9EF12023120
:100A3400E5186004E4FF80027F01120DB880D5023E
:020A44000EC9D9
:100A46008B198A1A891B120C87AF1D151DEF601FA3
:100A5600AB19051BE51BAA1A7002051A14F9120137
:100A6600EBFF120C5B120C997FC8120E3380DA1260
:100A76000EC9120E227FFF120E33120E227FFF02C4
:020A86000E332D
:040DEE007F057E00FF
:100DF200EF1FAA0670011E4A600BE4FDEDC3940CBE
:050E020050EE0D80F729
:010E070022C8
:020D6100A907E0
:100D6300E4FBC294E9139294120DEED294E9C313F7
:0C0D7300F90BBB08ED7F057E00020DF2BD
:100E0800E4FBC294ECC313FCD294309403430480F3
:090E1800120DEE0BBB08EBAF0458
:010E210022AE
:100CAF00C201D2947F0C7E00120DF2C2947F507E4F
:100CBF0000120DF2D2947F0A7E00120DF2A29492CE
:060CCF0001120DEEA2016E
:010CD50022FC
:100A8800120CAF7FCC120D617F44120D617FC87EBE
:100A980000120DF2120CAF7FCC120D617FBE120D49
:100AA80061120E08A907120E08EFAD01FCEC120145
:0B0AB80031E4FBFA7980783D02002653
:10002600EC4D6011E8497017ED33EC3304600DE4D4
:10003600FCFFFEFD22E933E8330470F80201D61214
:1000460001A158046009E4CC248150062850090215
:1000560001E02840030201DDC0E0EB4A7044B980AC
:1000660006D0E0FB0201CCEF4E701CBD8008EBFF12
:10007600EAFEE9FD80EBE98DF0A4FEE5F002010F52
:10008600E9CDF9EAFEEBFFEF89F0A4FCE5F0CE89B5
:10009600F0A42EFFE435F0CD89F0A42DFEE435F072
:1000A6008067EF4E7005BD80D780C3EF8BF0A4ACA0
:1000B600F0EE8BF0A42CFCE435F0F8EF8AF0A42CDB
:1000C600E5F038FCE433CB8DF0A42CFCE5F03BF8EE
:1000D600EE8AF0A42CFCE5F038F8E433CF89F0A4DE
:1000E6002CFCE5F038CF3400CE89F0A42FFFE5F0E4
:1000F6003EFEE433C98DF0A42EFEE5F039CD8AF03C
:10010600A42FFFE5F03EFEE43DFD33D0E0FB5007B3
:100116000BBB000F0201E0EC2CFCEF33FFEE33FECD
:06012600ED33FD0201B8FB
:10012C0075F020800E75F010800575F0087D007E4E
:10013C00007F003392D530D5031202BAEC33401055
:10014C00EF33FFEE33FEED33FDEC33FCD5F0ED2257
:0E015C00E5F0247EA2D513CC92E7CDCEFF2293
:10016A00EDD2E7CD33EC3392D524814006E4FFFE8D
:10017A00FDFC22FCE4CFCECDCC24E0501174FF80EC
:10018A00EDC3CC13CCCD13CDCE13CECF13CF047089
:07019A00F030D5DE0202BACD
:1001A100E9D2E7C933E833F892D5EDD2E7CD33ECA4
:0701B10033FC5002B2D5221D
:1001B800EC30E7100FBF000C0EBE00080DBD0004A8
:1001C8000BEB6014A2D5EB13FCED92E7FD2274FF54
:1001D800FCFDFEFF22E480F8A2D574FF13FC7D80AD
:0301E800E480EFC1
:0300000002078C68
:0C078C00787FE4F6D8FD75819D0207D34C
:1001EB00BB010689828A83E0225002E722BBFE0212
:0901FB00E32289828A83E4932245
:10020400BB010CE58229F582E5833AF583E02250AF
:1002140006E92582F8E622BBFE06E92582F8E222F9
:0D022400E58229F582E5833AF583E4932213
:10023100BB010689828A83F0225002F722BBFE01AC
:02024100F322A6
:10024300F8BB010DE58229F582E5833AF583E8F0F1
:10025300225006E92582C8F622BBFE05E92582C89D
:02026300F22285
:10026500BC000BBE0029EF8DF084FFADF022E4CC7D
:10027500F875F008EF2FFFEE33FEEC33FCEE9DEC46
:10028500984005FCEE9DFE0FD5F0E9E4CEFD22ED8C
:10029500F8F5F0EE8420D21CFEADF075F008EF2FD6
:1002A500FFED33FD4007985006D5F0F222C398FDC7
:0502B5000FD5F0EA2264
:0E02BA00C3E49FFFE49EFEE49DFDE49CFC2255
:1002C800EB9FF5F0EA9E42F0E99D42F0E89C45F08C
:0102D8002203
:0C02D900E6FC08E6FD08E6FE08E6FF2251
:0D02E500E6FB08E6F908E6FA08E6CBF82289
:0C02F200ECF608EDF608EEF608EFF62238
:0602FE008A838982E4738B
:10030400EF4E6012EF60010EEDBB010B89828A8310
:10031400F0A3DFFCDEFA2289F05007F709DFFCA91D
:0C032400F022BBFEFCF309DFFCA9F02274
:10079800020DD4E493A3F8E493A34003F68001F296
:1007A80008DFF48029E493A3F85407240CC8C33362
:1007B800C4540F4420C8834004F456800146F6DF31
:1007C800E4800B01020408102040809006F1E47ECA
:1007D800019360BCA3FF543F30E509541FFEE49326
:1007E800A360010ECF54C025E060A840B8E493A3ED
:1007F800FAE493A3F8E493A3C8C582C8CAC583CA18
:10080800F0A3C8C582C8CAC583CADFE9DEE780BECF
:01078B00006D
:00000001FF
