:101AFF00282562752C20256275290078203D202528
:101B0F0062752C2079203D20256275006572726FF9
:031B1F0072210030
:1014340088170A0A0A0A0A0A0A0A88000000000031
:101444000000000001BE0A0146058314173B370162
:1014540057428C080000000000000000000000005B
:1014640020585CFF16560000000A00000000FF0E22
:10147400D9000000C800000000FF1CFD00000001AE
:1014840000000000FF16BB0000000A00000000FF7F
:101494001CE80000006400000000FF1D06000000BE
:1014A400C800000000FF1940000000C80000000050
:0B14B400FF0003000000C80000000063
:101656001212E078B8EFF678B6E66FFE5FFD78B462
:10166600F6EFF45E7847F678B8E678B6F6ED24FB42
:10167600601804703F7858E62401FFE433FE7C00CE
:101686007D061205B07858A60522784CE6FE08E6D7
:10169600FF7859A60608A6077B007A0079597527B0
:1016A60002E4FD1218527B007A0079577527017DF6
:0516B600101218522281
:100ED9007858E6147003020FAB14700302100B1458
:100EE90070030210501470030210D714700302111A
:100EF90042240560030211F97819740AF218F218EC
:100F0900F2784CE6FE08E6FFC39410EE94274012EF
:100F19007C277D101205B07C007D0A1205B0AF0553
:100F290080027F0A781AEFF2784CE6FE08E6FFC3E2
:100F390094E8EE940340127C037DE81205B07C002E
:100F49007D0A1205B0AF0580027F0A781BEFF2789F
:100F59004CE6FE08E6FFC39464EE940040127C0060
:100F69007D641205B07C007D0A1205B0AF058002D0
:100F79007F0A781CEFF2784CE6FE08E6FFC3940A74
:100F8900EE940040127C007D0A1205B07C007D0AB7
:100F99001205B0AF0580027F0A781DEFF2784C0286
:100FA90011E9781B740AF218F218F218F218F2789B
:100FB9004EE6FE08E6FFC39464EE940040127C00FE
:100FC9007D641205B07C007D0A1205B0AF05800270
:100FD9007F0A781CEFF2784EE6FE08E6FFC3940A12
:100FE900EE940040127C007D0A1205B07C007D0A57
:100FF9001205B0AF0580027F0A781DEFF2784E0224
:1010090011E9781C740BF27819F27814E2FF75F083
:101019000A847817F2EF75F00A8408E5F0F278157A
:10102900E2FF75F00A84781AF2EF75F00A8408E590
:10103900F0F27816E2FF75F00A84781DF2EF75F088
:101049000A8408E5F0F222781B740AF27817F2781C
:1010590053E6FA08E6FB7C007D64FFAE021205B098
:101069007C007D0A1205B0ED242E7818F27C007DF3
:101079000AAF03AE021205B07C007D0A1205B078F2
:1010890019EDF27853E6FE08E6FF7C007D0A1205A9
:10109900B0781AEDF27855E6FA08E6FB7C007D6433
:1010A900FFAE021205B07C007D0A1205B0ED242EB8
:1010B900781CF27C007D0AAF03AE021205B07C00F9
:1010C9007D0A1205B0781DEDF278550211E9781AFA
:1010D900740AF218F218F218F27848E6FE08E6FFE8
:1010E900C394E8EE940340127C037DE81205B07CBA
:1010F900007D0A1205B0AF0580027F0A781BEFF266
:101109007848E6FA08E6FB7C007D64FFAE0212052A
:10111900B07C007D0A1205B0ED242E781CF27C000B
:101129007D0AAF03AE021205B07C007D0A1205B03C
:10113900781DEDF278480211E97819740AF218F26B
:1011490018F27850E6FE08E6FFC39410EE942740A3
:10115900127C277D101205B07C007D0A1205B0AF04
:101169000580027F0A781AEFF27850E6FE08E6FF5A
:10117900C394E8EE940340127C037DE81205B07C29
:10118900007D0A1205B0AF0580027F0A781BEFF2D5
:101199007850E6FE08E6FFC39464EE940040127CA2
:1011A900007D641205B07C007D0A1205B0AF058090
:1011B900027F0A781CEFF27850E6FE08E6FFC39436
:1011C9000AEE940040127C007D0A1205B07C007D75
:1011D9000A1205B0AF0580027F0A781DEFF2785038
:1011E900E6FE08E6FF7C007D0A1205B0781EEDF2E6
:0111F90022D3
:091CFD007BFE7A007900021566F5
:1016BB007845E6605E785BE6C3940A4056C20CE45C
:1016CB00F67528FF75291A752AFFF52B752C0075F1
:1016DB002D23F52E752F007530247BFE7A007908AB
:1016EB00120C08EF64024E7BFF700C7A1B790A8593
:1016FB00232885242980047A1B791B12077D7845C2
:10170B00E6FF7E007D007BFE7A0079081206D7E4A7
:03171B007845F618
:01171E0022A8
:030023000219AB14
:1019AB00C0E0C0D075D000C00030981A7845E6C3AF
:1019BB00940C5010D20C785B76007845E606240820
:0D19CB00F8E599F2C298D000D0D0D0E032FB
:0B1CE8001218CF784EA60608A60722AF
:091D06007BFE7A00791402190831
:101940007F43121ADAEF75F064A4FFAEF07C007DDD
:10195000331205B07853A60608A6077F41121ADA9B
:10196000EF75F064A4FFAEF07C007D331205B07813
:0719700055A60608A6072298
:10000300121894E4FBFA79C8784212002612016AA6
:080013007848A60608A60722A2
:101C7B00538E7F5389F0438905E4F58AF58CC28D29
:031C8B00D28C22D6
:101C3D00538EBF53890F758B18758DFCC28FD28E45
:051C4D00D2ABD2AF2272
:03001B0002138C41
:10138C00C0E0C0F0C083C082C0D075D000C000C027
:10139C0001C002C003C004C005C006C00778BA1261
:1013AC00065DEF2401FFE43EFEE43DFDE43CFC78E9
:1013BC00BA12067678B906E65407F6E6FF2417F853
:1013CC00E2FED394144008EE24D2FDD200800B78B8
:1013DC00B9E6FF2417F8E2FDC2001217C7784A08D5
:1013EC0006E6187001068606C394E8EE94034017CF
:1013FC00784A7600087600AF8CEFAD8A08F6ED08D7
:10140C00F6758C00758A00300C03785B06D007D01B
:10141C0006D005D004D003D002D001D000D0D0D05B
:08142C0082D083D0F0D0E03241
:05001E0078B576082210
:0B15E400E4F524E524C378B5965066BA
:1015EF0078BA12065D8F288E278D268C25E52475F7
:1015FF00F00BA42463F8120669C3E5289BFFE527C7
:10160F009AFEE52699FDE52598FCE52475F00BA4D7
:10161F00245FF8120669D31206325026AF28AE2780
:10162F00AD26AC25E52475F00BA42463F8120676DD
:10163F00E52475F00BA4245CF808E6FA08E6F91225
:02164F0006D1C2
:04165100052480925A
:011655002272
:10171F00121B227B007A0079237528017D10121885
:10172F0010E5237857667029FB7A007952752801E6
:10173F00FD1218107B007A0079B77528017D011210
:10174F0018107852E6FE78B7E6FDEE7850F6ED0801
:10175F00F67BFE7A00791412177A121C26121C7B64
:0B176F00121C3D12001E1215E480FB4E
:101B22007580FFE5A0541F44E0F5A0E5A0541FF521
:101B3200A0E4F580E5A0541F44A0F5A0E5A0541F41
:021B4200F5A00C
:011B4400227E
:1012E000E4FF20B00122C2C4D2C2D2B5D2B420B031
:1012F000027F0720B1027F0620B2027F0520B302E1
:101300007F04D2C4D2C2D2B5D2B420B0037F0022AF
:10131000D2C4C2C2D2B5D2B420B0027F0B20B10277
:101320007F0A20B2027F0920B3027F08D2C4D2C252
:10133000D2B5D2B420B0037F0022D2C4D2C2C2B58B
:10134000D2B420B0027F0F20B1027F0E20B2027F04
:101350000D20B3027F0CD2C4D2C2D2B5D2B420B019
:10136000037F0022D2C4D2C2D2B5C2B420B0027F61
:101370001320B1027F1220B2027F1120B3027F102E
:0B138000D2C4D2C2D2B5D2B443B0EF49
:01138B00223F
:0E14BF000C08C0F9A4B0999282F88090FFBF8B
:1017C7007580FFE5A0541F44E0F5A0E5A0541FFE77
:1017D700F5A0A8077401088002C333D8FCF580E59B
:1017E700A0541F44C0F5A0E5A0541FF5A074082D10
:1017F700F8E6F58030000353807FE5A0541F44E0EE
:08180700F5A0E5A0541FF5A0B7
:01180F0022B6
:0C14CD00011800011AFF011900011BFFAB
:10156600E47818F690000112054F25E0FF120536C3
:101576004FFF90000212054F25E025E04FFF900037
:101586000312054F33333354F84FFF90000412050E
:101596004FC454F04FFF90000512054FC43354E07A
:1015A6004FFF90000612054FC4333354C04FFF90CF
:1015B600000712054FC433333354804F7818F6783A
:1015C6001A6660197818E6FFF4F580E5A0541F4402
:0D15D60080F5A0E5A0541FF5A0781AA60727
:0115E30022E5
:061BA1008B148A15891661
:101BA7007580FFE5A0541F4480F5A0E5A0541FF5FC
:051BB700A0E4781AF61D
:011BBC002206
:1019D8007819E6300D054410F6800354EFF6791BAC
:1019E800E77819666016E6FFF580E5A0541F44A065
:0C19F800F5A0E5A0541FF5A0781BA60781
:011A040022BF
:101A05007819E6300E054420F6800354DFF6791B7D
:101A1500E77819666016E6FFF580E5A0541F44A037
:0C1A2500F5A0E5A0541FF5A0781BA60753
:011A31002292
:101A32007819E6300F054440F6800354BFF6791B4F
:101A4200E77819666016E6FFF580E5A0541F44A00A
:0C1A5200F5A0E5A0541FF5A0781BA60726
:011A5E002265
:101C2600759850438E01538EFB75D7E675D6FF43E4
:071C36008E10D2ACD2AF22E8
:081D0F008F993099FDC2992261
:051D1700007F03DFFE68
:011D1C0022A4
:101C5200C2AFE4FED290121D17C290121D170EBE23
:041C620008F2D2AF03
:011C6600225B
:1018CF00E4F5D9F5F9F5E9121C52D2DE3091033067
:1018DF00DFFAC2DE20DF1CAFF9EFFEADE9EDFFACA2
:1018EF0006E41201317B967A43798B783C120026FD
:0818FF0002016AC2DFE4FEFFF2
:0119070022BD
:101C8E00E4FEC297EF1392A3EFC313FFD2970EBEDB
:021C9E0008F04C
:011CA0002221
:101C6700C29300C29700D29300121C8EAF05121CBC
:041C77008EC2932264
:10197700E4FDC29300C29700D29300121C8EE4FFCD
:10198700C297EDC313FD30A303430580D2970FBF62
:1019970008EEC29300C29700D29700C2A300D2A359
:0319A70000AF0589
:0119AA00221A
:06177A008B248A2589265C
:10178000E4FD7F8E121C677D807F80121C67E4FC65
:10179000EC25E0FFC374849FFFAB24AA25A9268C07
:1017A0008275830012054FFE75F00A84C454F0FD63
:1017B000EE75F00A84ED25F0FD121C670CBC03D019
:0717C0007D807F8E021C6793
:061908008B238A248925CF
:10190E00C2AFE4FCEC25E0FFC374859FFF1219778C
:10191E00EFC4540F75F00AA4FEEF540F2EAB23AA9A
:10192E0024A9258C8275830012058E0CBC03D5D29A
:01193E00AFF9
:01193F002285
:101C0D007FFF121C1E7FFF121C1E7FFF121C1E7FEA
:011C1D00FFC7
:081C1E0000AE071FEE70F92271
:101CA100D2A1D2A07F05121C1EC2A17F05121C1E4B
:031CB100C2A022AC
:101CD800C2A1D2A07F05121C1ED2A17F05021C1E24
:021A5F00AD07D1
:101A6100E4FCC2A07F05121C1EED30E704D2A18068
:101A710002C2A17F05121C1ED2A0ED25E0FD7F054B
:091A8100121C1E0CBC08DBC2A003
:011A8A002239
:101B4500E4FCD2A07F05121C1EED25E0FD30A103AB
:101B5500430501C2A07F05121C1E0CBC08E4AF059D
:011B6500225D
:101A8B00AB05121CA17FA0121A5F121A9DAF031295
:021A9B001A5FD0
:101A9D00D2A07F05121C1EA2A1E433FDC2A07F05BA
:051AAD00121C1EAF0534
:011AB2002211
:101BBD00C2A0EF24FF92A17F05121C1ED2A07F05AB
:0C1BCD00121C1EC2A0D2A17F05021C1E2B
:021ADA00AB0758
:101ADC00121CA17F90121A92121CA17F91121A5FF4
:101AEC00121A9D121B45AD077F01121BBD121CD88B
:021AFC00AF0534
:011AFE0022C5
:101B8400AB07121CA17F90121A5F121A9D7F40129C
:0D1B94001A5F121A9DAF03121A5F021A9D0C
:101810008B248A258926121A8B121CA17FA1121AE9
:101820005F121A9DAF281528EF6024121B45AB24C8
:101830000526E526AA257002052514F9EF12057C78
:10184000E5286004E4FF80027F01121BBD80D50201
:021850001CD8A2
:101852008B238A248925121A8BAF271527EF601F45
:10186200AB230525E525AA247002052414F91205E7
:1018720036FF121A5F121A9D7FC8121C1E80DA12DE
:101882001CD8121C0D7FFF121C1E121C0D7FFF02A2
:021892001C1E1A
:041BD9007F057E0006
:101BDD00EF1FAA0670011E4A600BE4FDEDC3940CC5
:051BED0050EE0D80F731
:011BF20022D0
:021B6600A907CD
:101B6800E4FBC294E9139294121BD9D294E9C313EB
:0C1B7800F90BBB08ED7F057E00021BDDB1
:101BF300E4FBC294ECC313FCD294309403430480FB
:091C0300121BD90BBB08EBAF0466
:011C0C0022B5
:101AB300C201D2947F0C7E00121BDDC2947F507E44
:101AC30000121BDDD2947F0A7E00121BDDA29492CA
:061AD30001121BD9A20163
:011AD90022EA
:10189400121AB37FCC121B667F44121B667FC87E6C
:1018A40000121BDD121AB37FCC121B667FBE121B03
:1018B40066121BF3A907121BF3EFAD01FCEC120136
:0B18C40031E4FBFA7980783D02002639
:10002600EC4D6011E8497017ED33EC3304600DE4D4
:10003600FCFFFEFD22E933E8330470F80201D61214
:1000460001A158046009E4CC248150062850090215
:1000560001E02840030201DDC0E0EB4A7044B980AC
:1000660006D0E0FB0201CCEF4E701CBD8008EBFF12
:10007600EAFEE9FD80EBE98DF0A4FEE5F002010F52
:10008600E9CDF9EAFEEBFFEF89F0A4FCE5F0CE89B5
:10009600F0A42EFFE435F0CD89F0A42DFEE435F072
:1000A6008067EF4E7005BD80D780C3EF8BF0A4ACA0
:1000B600F0EE8BF0A42CFCE435F0F8EF8AF0A42CDB
:1000C600E5F038FCE433CB8DF0A42CFCE5F03BF8EE
:1000D600EE8AF0A42CFCE5F038F8E433CF89F0A4DE
:1000E6002CFCE5F038CF3400CE89F0A42FFFE5F0E4
:1000F6003EFEE433C98DF0A42EFEE5F039CD8AF03C
:10010600A42FFFE5F03EFEE43DFD33D0E0FB5007B3
:100116000BBB000F0201E0EC2CFCEF33FFEE33FECD
:06012600ED33FD0201B8FB
:10012C0075F020800E75F010800575F0087D007E4E
:10013C00007F003392D530D503120624EC334010E7
:10014C00EF33FFEE33FEED33FDEC33FCD5F0ED2257
:0E015C00E5F0247EA2D513CC92E7CDCEFF2293
:10016A00EDD2E7CD33EC3392D524814006E4FFFE8D
:10017A00FDFC22FCE4CFCECDCC24E0501174FF80EC
:10018A00EDC3CC13CCCD13CDCE13CECF13CF047089
:07019A00F030D5DE0206245F
:10071B00E53C2428F8E6053C2278253008027828A9
:10072B00E475F00112068B0205362001EB7F2ED209
:10073B00018018EF540F2490D43440D4FF30050BB4
:10074B00EF24BFB41A0050032461FFE53D6002158E
:10075B003D0540E5407002053F30080D7825E475F6
:10076B00F00112068BEF02057C021D0F7403D208F9
:10077B008003E4C208F53C8B258A268927E4F53DE6
:10078B00F53FF540E53D60077F2012075680F57574
:10079B003EFFC202C201C203C204C206C207C209A3
:1007AB00120724FF700D3008057F00120767AF405A
:1007BB00AE3F22B4255FC2D5C205120724FF24D059
:1007CB00B40A00501A75F00A783D30D50508B6FF0B
:1007DB000106C6A426F620D5047002D20480D924C3
:1007EB00CFB41A00EF5004C2E5D205020A54D2026C
:1007FB0080C6D20180C0D20380BCD2D580BAD206CB
:10080B0080B47F201207562003077401B53D0040CA
:10081B00F112071BFF12075602078FD209D207806E
:10082B009512071BFB12071BFA12071BF94A4B7099
:10083B0006794B7A0B7BFF20032EE53D602A7E0069
:10084B008E8275830012054F60060EEE653E70F0CA
:10085B00C2D5EBC0E0EAC0E0E9C0E0EE120AB4D0CA
:10086B00E0F9D0E0FAD0E0FB120536FF60AAEBC04E
:10087B00E0EAC0E0E9C0E0120756D0E02401F9D06D
:10088B00E03400FAD0E0FBE53E0460DCD53ED980D5
:10089B0087D20380A2120A9760F7E53E700104121B
:1008AB0001EBA93E600DE53E600914F53E120B3ECF
:1008BB00EF60F3EA30E702F404C3995077EAF425CA
:1008CB003E0430E701E404F53E800D120A9760C147
:1008DB00EA053E253E1201EBEA783BF630E701E4F0
:1008EB00253E04D53E0420060114120AB4E4C0E0F0
:1008FB00120B3E783BE6601320E70714F612073E17
:10090B00802204F6D0E014C0E07F0012073EE53EE3
:10091B006007120735153E800B300603120735D0E2
:10092B00E002078FD0E00480C5120A9760A0E53E75
:10093B00041201EB783BEAF6E53E20060260010467
:05094B002404120AB4AF
:1009500074FF04C0E0120B3E12073EE53E20060283
:100960006003120735D0E0B53EE87F4512074878AE
:100970003BE67F2B30E7047F2DF404C0E0120756DE
:10098000D0E075F00A84C0F012073FD0E012073FB4
:1009900002078F791080027908C207C2098008D245
:1009A000D5790A8004790AC2D5E53E047002F53E85
:1009B000E4FAFDFEFF12071BFC7B0820021312075E
:1009C0001BFD7B1030010A12071BFE12071BFF7B69
:1009D00020EC3382D592D55013C3E43001069FFF3B
:1009E000E49EFEE42002039DFDE49CFCE4CBF8C2FF
:1009F00002EC700CCFCECDCCE824F8F870F3801761
:100A0000C3EF33FFEE33FEED33FDEC33FCEB33FB92
:100A1000994002FB0FD8E9EB300205F8D0E0C4485A
:100A2000B202C0E00AEC4D4E4F78207B0070C2EA63
:100A3000B53E0040BCC0E0120AB6D0F0D0E02002C3
:100A400004C4C0E0C4B202C0F012073FD0F0D5F039
:100A5000EB02078F1206AB082C5309935807FD4C85
:100A600007F94209974F099F44099F490812430912
:100A7000A55508D64609344508A0470B6B50080118
:100A80002D08052E08282B0809230826200B542A98
:100A900007C14800000820E53EB4FF03753E06127A
:100AA000071BFC12071BFD12071BFE12071BFF781A
:100AB0003402021A790AA2D5200414300609B910AA
:100AC000020404B9080104A2D52007025001042041
:100AD00003689203B53D005034C0E07F2030041914
:100AE0007F30A20372077206500F120B0DC203C2B1
:100AF00007C206C2097F30800F300603E9C0E0124A
:100B00000756300603D0E0F9D0E0B53DCC300617EB
:100B10007F30B9100C1207567F583005077F788058
:100B200003B908031207563003057F2D0207567FCD
:100B3000202009F87F2B2007F322920380CF7F002B
:100B4000B4070050052434F8E6FF22286E756C6C5B
:100B50002900D20212071B3002F8C202783D30D5BC
:100B60000108F60207C12D5043495812071B240300
:100B7000B405004001E4900B6693120747743A12E3
:0A0B80000747D204753D04020993F3
:100B8A00E53A30040104F823282428F8227825308D
:100B9A0004027828E475F00112068B02053660EC2F
:100BAA00C53E7002153D14C53E200404FF021D1DFA
:100BBA00782574FFF5F002069BFF021CB4E53B6042
:100BCA0006D53B037F002220040F121CC7EF6008E2
:100BDA00053EE53E7002053D227825120682120581
:100BEA0036FF60E97825E475F00112068B80DE1283
:100BFA000BD1EFC0E0120BC3D0E040F380A0D204C7
:100C0A008002C2048B258A268927E4F53CF53AF549
:100C1A003DF53E753B00C203C201C202C205120B7A
:100C2A0097FF7005AF3C7E0022B42530120B97FF68
:100C3A0024D0B40A00500C75F00AC53BA4253BF534
:100C4A003B80E924CFB41A00EF5002C2E5020EA598
:100C5A00D20280D8D20180D4D20580D0EF120BC341
:100C6A005008120BF9EF600E80A9EFC0E0120BD109
:100C7A00D0E06F609EEF6074120BA880A7120BD1B0
:100C8A00EF6069E53B7007053B8003120BD1EF600B
:100C9A001420050E120B8AE475F00112068BEF126E
:100CAA00057CD53BE6200504053A053C80BA120BC3
:100CBA00C7EFC0E0120BC3D0E05004120BA8E4FF48
:100CCA0020050E120B8AE475F00112068BEF12054D
:100CDA007CEF70DA200504053A053C808BE53B6021
:100CEA0002053B120BF9120BC7EF70C6300404E47D
:100CFA00120BA8E53C6003020C2E7EFF7FFF22E563
:100D0A003B6002053B120BF9D207D206120BC7EF62
:100D1A0030070260D7C0E0120BA8D0E0AC3FAD406C
:100D2A00AE41AF4212120D8C3F8D408E418F425020
:100D3A0007120BD1C20680D4200510200602053CFA
:080D4A00120B8A120682053A21
:100D5200120643020C1DD0E0809A7900800A7910B5
:100D6200800679088002790AD206E53B6002053BDB
:100D7200E9C0E0120BF9EF60DD120BD1BF2D04D2F6
:100D8200038003BF2B09120BF9EF60CA120BC7D005
:100D9200E0B40A028033B40802802EBF302770020A
:100DA2007408C206C0E0120BC7D0E0BF780280030D
:100DB200BF5816053BD53B028007D53B04D20680BF
:100DC2000B741080197002740ABF000AEFF8E4FC79
:100DD200FDFEFF020E58C0E0EF120BA8D0E0F9E4CE
:100DE200FCFDFEFFE9C0E0ECC0E0EDC0E0EEC0E0DB
:100DF200EFC0E0120BC7EFF8D0E0FFD0E0FED0E08A
:100E0200FDD0E0FCD0F0E8604DB461004007B47B57
:100E1200005002C2E524D0503DFA24F6500724F9CE
:100E22005034240AFAEAB5F000502BCFA9F0A42FCF
:100E3200FF92D5E9C5F0CEA4A2D53EFE92D5E9C572
:100E4200F0CDA4A2D53DFD92D5E9C5F0CCA4A2D5A2
:100E52003CFCC206808EE8C0E020052A2006080578
:100E62003C300303120624120B8A120682053A2032
:100E7200010B20020DEE8FF01206058009120643C7
:100E82008004EF12057CD0E0120BA8020C1D200595
:100E920010120B8A120682053AE53D853EF01206D3
:100EA2000580E81206AB0CE7530D60580C5E4C0C43
:100EB2005A420C36480D644F0D68440C87430D5C52
:100EC200490D68550D09460D09450D09470C622A61
:070ED2000E904E00000C66BB
:1001A100E9D2E7C933E833F892D5EDD2E7CD33ECA4
:0701B10033FC5002B2D5221D
:1001B800EC30E7100FBF000C0EBE00080DBD0004A8
:1001C8000BEB6014A2D5EB13FCED92E7FD2274FF54
:1001D800FCFDFEFF22E480F8A2D574FF13FC7D80AD
:0301E800E480EFC1
:1001EB00F920E72824F950037907E4F42402FB18DB
:1001FB00DBFDE624FB5014E9600DE4F618E604F68B
:0F020B00B40A08E4F6D9F57401F60A22C2D52226
:10021A00ED33EC3392D5FA602AB4FF33EDC2E77BB3
:10022A00FF60067A02793FE4227A02794820D504EF
:10023A007A027943224E614E002B494E46002D49DF
:10024A004E4600E47A08F608DAFC7B00740722E8D6
:10025A00C0E0ECC0E0EDC0E0EEC0E0EFC0E0EA755F
:10026A00F010A4CAABF075F04DA42BFBE435F0FCFA
:10027A00EA2410FAEB34C5FBEC34D9FCEDC2E7FFF3
:10028A0075F056A4F42411C5F0F434C58FF0A42AED
:10029A00E5F03BE43CF620E7141204F6D0E0FFD088
:1002AA00E0FED0E0FDD0E0FC1204188014F4041241
:1002BA0004F6D0E0FFD0E0FED0E0FDD0E0FC120072
:1002CA0026D0E0F8E6FAEDD2E7CD33EC332482FB10
:1002DA00E4C3CF33CFCE33CECD33CD33DBF37B077D
:1002EA0075F00A846004F6081B0AE5F0F6088FF038
:1002FA00740AA4FFACF08EF0740AA42CFEACF05081
:10030A00010C8DF0740AA42CFDE435F0F608DBDE4E
:03031A0074072243
:1011FA00C208C209C20AC20BF9E4F543F544FCFD70
:10120A00FEFFE91007EA200A0CB42D04D20AD32201
:10121A00B42B02D32224D0504794095041240A30D7
:10122A000B15F88544F0740AA42872E74051C5F0FA
:10123A00704D85F044D322D209C0E0E4FBFA79204C
:10124A007841120026ECF8EDF9EEFAEFFBD0E0FC5B
:10125A00E41201361203243008B41543D322240AB7
:10126A00200B20B4FE0720081AD208D32224EB60F0
:10127A000424E0700EA20A9208D20BC20AD322C337
:10128A000201D6E4300B0BE544300A02F404A2084A
:10129A00920A3009EA254320D2E5A2E7920B5002CE
:1012AA00F404B4260050D8CCC0E0EDC0E0EEC0E0B3
:1012BA00EFC0E0EC1204F6D0E0FFD0E0FED0E0FD93
:1012CA00D0E0FC200B051200268003120418300A15
:0612DA00031204B5C3225B
:10031D000201D6E86480F8E933E83360110460F037
:10032D00ED33EC337009E8FCE9FDEAFEEBFF220446
:10033D0060DED3EB9FEA9EE99DE8C2E78CF0C2F741
:10034D0095F0400CE8CCF8E9CDF9EACEFAEBCFFB0D
:10035D001201A185D0F05804700320D5B3E80470C4
:10036D00075002B2D50201E092D5EC0460F7E4CC5F
:10037D00C0E0C398F8603B94186008400DD0E0FBD6
:10038D000201B8E4FBFAC9FC8028E830E406E4C9B0
:10039D00FBE4CAFCE830E305E4C9CACBFCE854072A
:1003AD006010F8C3E913F9EA13FAEB13FBEC13FC35
:1003BD00D8F130F52FC3E49CFCEF9BFFEE9AFEEDD8
:1003CD0099FDD0E0FBEF4E4D4C701222DB03020184
:1003DD00DDEC2CFCEF33FFEE33FEED33FDED30E7BE
:1003ED00EB0201B8EF2BFFEE3AFEED39FDD0E0FB4D
:1003FD0050130BBB00030201E0ED13FDEE13FEEFF6
:08040D0013FFEC13FC0201B81F
:100415000201E0EC5D046005E8590470030201D6B1
:100425001201A1580460F6EC4860F2EC7004FDFE80
:10043500FF22C860DB2481C85009C39860025006BA
:100445000201DD9850CAF582E9294B4A7005AB8255
:100455000201CC75F0007C1A7880C3EF9BEE9AED13
:1004650099400DC3EF9BFFEE9AFEED99FDE842F032
:10047500DC23ACF0D0E0FFD0E0FED0E0FDAB822085
:10048500E7101BEB60BAEC2CFCEF33FFEE33FEED0F
:1004950033FD0201B8E803F830E705C0F075F00058
:1004A500EF2FFFEE33FEED33FD40B830E7C280AAF3
:1004B500ED33EC33600A047003BD8004ECB2E7FC55
:0104C5002214
:1004C6003F8000004120000042C80000447A00003E
:1004D600461C400047C35000497424004B189680C0
:1004E6004CBEBC205A0E1BCA6753C21C749DC5AEB7
:1004F600FB60065407601C2323120524EB54386066
:100506000912051012051F120026ECF8EDF9EEFA95
:10051600EFCB22EB12051F80F1543803241C900404
:10052600C6FE93FC0EEE93FD0EEE930ECE93FF22C7
:030000000214DA0D
:0C14DA00787FE4F6D8FD7581BE02152174
:10053600BB010689828A83E0225002E722BBFE02C3
:09054600E32289828A83E49322F6
:10054F00BB010CE58229F582E5833AF583E0225061
:10055F0006E92582F8E622BBFE06E92582F8E222AB
:0D056F00E58229F582E5833AF583E49322C5
:10057C00BB010689828A83F0225002F722BBFE015E
:02058C00F32258
:10058E00F8BB010DE58229F582E5833AF583E8F0A3
:10059E00225006E92582C8F622BBFE05E92582C84F
:0205AE00F22237
:1005B000BC000BBE0029EF8DF084FFADF022E4CC2F
:1005C000F875F008EF2FFFEE33FEEC33FCEE9DECF8
:1005D000984005FCEE9DFE0FD5F0E9E4CEFD22ED3E
:1005E000F8F5F0EE8420D21CFEADF075F008EF2F88
:1005F000FFED33FD4007985006D5F0F222C398FD79
:050600000FD5F0EA2215
:10060500BB010A89828A83F0E5F0A3F0225006F740
:0F06150009A7F01922BBFE06F3E5F009F319223D
:0E062400C3E49FFFE49EFEE49DFDE49CFC22E7
:10063200EB9FF5F0EA9E42F0E99D42F0E89C45F01E
:010642002295
:10064300BB010789828A830207035005E9F8020682
:0A06530076BBFE05E9F802070F224E
:0C065D00E6FC08E6FD08E6FE08E6FF22C9
:0D066900E6FB08E6F908E6FA08E6CBF82201
:0C067600ECF608EDF608EEF608EFF622B0
:09068200E6FB08E6FA08E6F9229D
:10068B00FAE6FB0808E6F925F0F618E6CA3AF62270
:10069B00FAE6FB0808E625F0F9F618E63AFAF62230
:1006AB00D083D082F8E4937012740193700DA3A3DE
:1006BB0093F8740193F5828883E4737402936860F2
:0606CB00EFA3A3A380DFF2
:0606D1008A838982E473B4
:101CC70010100B121CF3BF0D027F0A021D0FAF1776
:011CD70022EA
:051D1D008F17D2102217
:101CB400EFC394094005EF940E4003BF2003D38083
:031CC40001C32237
:1006D700EF4E6012EF60010EEDBB010B89828A833A
:1006E700F0A3DFFCDEFA2289F05007F709DFFCA947
:0C06F700F022BBFEFCF309DFFCA9F0229E
:1014E60002171FE493A3F8E493A34003F68001F2E6
:1014F60008DFF48029E493A3F85407240CC8C33307
:10150600C4540F4420C8834004F456800146F6DFD5
:10151600E4800B0102040810204080901434E47E1D
:10152600019360BCA3FF543F30E509541FFEE493CA
:10153600A360010ECF54C025E060A840B8E493A391
:10154600FAE493A3F8E493A3C8C582C8CAC583CABC
:10155600F0A3C8C582C8CAC583CADFE9DEE780BE74
:0114D9000012
:0C070300ECF0A3EDF0A3EEF0A3EFF02269
:0C070F00ECF208EDF208EEF208EFF22226
:0A1CF3003098FDAF99C2987E0022E0
:00000001FF
