:101AFC00282562752C20256275290078203D20252B
:101B0C0062752C2079203D20256275006572726FFC
:031B1C0072210033
:10138C0088170A0A0A0A0A0A0A0A880000000000DA
:10139C000000000001BE0A0146058314173B37010B
:1013AC0057428C0800000000000000000000000004
:1013BC0020585CFF16530000000A00000000FF0ECE
:1013CC00D9000000C800000000FF1CFA000000015A
:1013DC0000000000FF16B80000000A00000000FF2B
:1013EC001CE50000006400000000FF1D030000006D
:1013FC00C800000000FF193D000000C800000000FC
:0B140C00FF0003000000C8000000000B
:1016530012143278B8EFF678B6E66FFE5FFD78B411
:10166300F6EFF45E7847F678B8E678B6F6ED24FB45
:10167300601804703F7858E62401FFE433FE7C00D1
:101683007D061205B07858A60522784CE6FE08E6DA
:10169300FF7859A60608A6077B007A0079597527B3
:1016A30002E4FD12184F7B007A0079577527017DFC
:0516B3001012184F2287
:100ED9007858E6147003020FAB14700302100B1458
:100EE90070030210501470030210D714700302111A
:100EF90042240560030211F97819740AF218F218EC
:100F0900F2784CE6FE08E6FFC39410EE94274012EF
:100F19007C277D101205B07C007D0A1205B0AF0553
:100F290080027F0A781AEFF2784CE6FE08E6FFC3E2
:100F390094E8EE940340127C037DE81205B07C002E
:100F49007D0A1205B0AF0580027F0A781BEFF2789F
:100F59004CE6FE08E6FFC39464EE940040127C0060
:100F69007D641205B07C007D0A1205B0AF058002D0
:100F79007F0A781CEFF2784CE6FE08E6FFC3940A74
:100F8900EE940040127C007D0A1205B07C007D0AB7
:100F99001205B0AF0580027F0A781DEFF2784C0286
:100FA90011E9781B740AF218F218F218F218F2789B
:100FB9004EE6FE08E6FFC39464EE940040127C00FE
:100FC9007D641205B07C007D0A1205B0AF05800270
:100FD9007F0A781CEFF2784EE6FE08E6FFC3940A12
:100FE900EE940040127C007D0A1205B07C007D0A57
:100FF9001205B0AF0580027F0A781DEFF2784E0224
:1010090011E9781C740BF27819F27814E2FF75F083
:101019000A847817F2EF75F00A8408E5F0F278157A
:10102900E2FF75F00A84781AF2EF75F00A8408E590
:10103900F0F27816E2FF75F00A84781DF2EF75F088
:101049000A8408E5F0F222781B740AF27817F2781C
:1010590053E6FA08E6FB7C007D64FFAE021205B098
:101069007C007D0A1205B0ED242E7818F27C007DF3
:101079000AAF03AE021205B07C007D0A1205B078F2
:1010890019EDF27853E6FE08E6FF7C007D0A1205A9
:10109900B0781AEDF27855E6FA08E6FB7C007D6433
:1010A900FFAE021205B07C007D0A1205B0ED242EB8
:1010B900781CF27C007D0AAF03AE021205B07C00F9
:1010C9007D0A1205B0781DEDF278550211E9781AFA
:1010D900740AF218F218F218F27848E6FE08E6FFE8
:1010E900C394E8EE940340127C037DE81205B07CBA
:1010F900007D0A1205B0AF0580027F0A781BEFF266
:101109007848E6FA08E6FB7C007D64FFAE0212052A
:10111900B07C007D0A1205B0ED242E781CF27C000B
:101129007D0AAF03AE021205B07C007D0A1205B03C
:10113900781DEDF278480211E97819740AF218F26B
:1011490018F27850E6FE08E6FFC39410EE942740A3
:10115900127C277D101205B07C007D0A1205B0AF04
:101169000580027F0A781AEFF27850E6FE08E6FF5A
:10117900C394E8EE940340127C037DE81205B07C29
:10118900007D0A1205B0AF0580027F0A781BEFF2D5
:101199007850E6FE08E6FFC39464EE940040127CA2
:1011A900007D641205B07C007D0A1205B0AF058090
:1011B900027F0A781CEFF27850E6FE08E6FFC39436
:1011C9000AEE940040127C007D0A1205B07C007D75
:1011D9000A1205B0AF0580027F0A781DEFF2785038
:1011E900E6FE08E6FF7C007D0A1205B0781EEDF2E6
:0111F90022D3
:091CFA007BFE7A007900021563FB
:1016B8007845E6605E785BE6C3940A4056C20CE45F
:1016C800F67528FF75291A752AFCF52B752C0075F7
:1016D8002D23F52E752F007530247BFE7A007908AE
:1016E800120C08EF64024E7BFF700C7A1B79078599
:1016F800232885242980047A1B791812077D7845C8
:10170800E6FF7E007D007BFE7A0079081206D7E4AA
:031718007845F61B
:01171B0022AB
:030023000219A817
:1019A800C0E0C0D075D000C00030981A7845E6C3B2
:1019B800940C5010D20C785B76007845E606240823
:0D19C800F8E599F2C298D000D0D0D0E032FE
:0B1CE5001218CC784EA60608A60722B5
:091D03007BFE7A00791402190537
:10193D007F43121AD7EF75F064A4FFAEF07C007DE3
:10194D00331205B07853A60608A6077F41121AD7A1
:10195D00EF75F064A4FFAEF07C007D331205B07816
:07196D0055A60608A607229B
:10000300121891E4FBFA79C8784212002612016AA9
:080013007848A60608A60722A2
:101C7800538E7F5389F0438905E4F58AF58CC28D2C
:031C8800D28C22D9
:101C3A00538EBF53890F758B18758DFCC28FD28E48
:051C4A00D2ABD2AF2275
:03001B000212E0EE
:1012E000C0E0C0F0C083C082C0D075D000C000C0D4
:1012F00001C002C003C004C005C006C00778BA120E
:10130000065DEF2401FFE43EFEE43DFDE43CFC7895
:10131000BA12067678B906E65407F6E6FF2417F8FF
:10132000E2FED394144008EE24D2FDD200800B7864
:10133000B9E6FF2417F8E2FDC2001217C4784A0884
:1013400006E6187001068606C394E8EE9403401B77
:10135000784A7600087600C28CAF8CEFAD8A08F62A
:10136000ED08F6758C00758A00D28C300C03785B22
:1013700006D007D006D005D004D003D002D001D0CB
:0C13800000D0D0D082D083D0F0D0E0327A
:05001E0078B576082210
:0B15E100E4F524E524C378B5965066BD
:1015EC0078BA12065D8F288E278D268C25E52475FA
:1015FC00F00BA42463F8120669C3E5289BFFE527CA
:10160C009AFEE52699FDE52598FCE52475F00BA4DA
:10161C00245FF8120669D31206325026AF28AE2783
:10162C00AD26AC25E52475F00BA42463F8120676E0
:10163C00E52475F00BA4245CF808E6FA08E6F91228
:02164C0006D1C5
:04164E00052480925D
:011652002275
:10171C00121B1F7B007A0079237528017D1012188B
:10172C000DE5237857667029FB7A007952752801EC
:10173C00FD12180D7B007A0079B77528017D011216
:10174C00180D7852E6FE78B7E6FDEE7850F6ED0807
:10175C00F67BFE7A007914121777121C23121C7870
:0B176C00121C3A12001E1215E180FB57
:101B1F007580FFE5A0541F44E0F5A0E5A0541FF524
:101B2F00A0E4F580E5A0541F44A0F5A0E5A0541F44
:021B3F00F5A00F
:011B41002281
:10143200E4FF20B0030214D6C2C4D2C2D2B5D2B4E1
:1014420020B0027F0720B1027F0620B2027F052072
:10145200B3027F04D2C4D2C2D2B5D2B430B075D2F4
:10146200C4C2C2D2B5D2B420B0027F0B20B1027F77
:101472000A20B2027F0920B3027F08D2C4D2C2D2AC
:10148200B5D2B430B04ED2C4D2C2C2B5D2B420B0FA
:10149200027F0F20B1027F0E20B2027F0D20B30225
:1014A2007F0CD2C4D2C2D2B5D2B430B027D2C4D209
:1014B200C2D2B5C2B420B0027F1320B1027F122083
:1014C200B2027F1120B3027F10D2C4D2C2D2B5D2EF
:0414D200B443B0EF80
:0114D60022F3
:0E1417000C08C0F9A4B0999282F88090FFBF33
:1017C4007580FFE5A0541F44E0F5A0E5A0541FFE7A
:1017D400F5A0A8077401088002C333D8FCF580E59E
:1017E400A0541F44C0F5A0E5A0541FF5A074082D13
:1017F400F8E6F58030000353807FE5A0541F44E0F1
:08180400F5A0E5A0541FF5A0BA
:01180C0022B9
:0C142500011800011AFF011900011BFF53
:10156300E47818F690000112054F25E0FF120536C6
:101573004FFF90000212054F25E025E04FFF90003A
:101583000312054F33333354F84FFF900004120511
:101593004FC454F04FFF90000512054FC43354E07D
:1015A3004FFF90000612054FC4333354C04FFF90D2
:1015B300000712054FC433333354804F7818F6783D
:1015C3001A6660197818E6FFF4F580E5A0541F4405
:0D15D30080F5A0E5A0541FF5A0781AA6072A
:0115E00022E8
:061B9E008B148A15891664
:101BA4007580FFE5A0541F4480F5A0E5A0541FF5FF
:051BB400A0E4781AF620
:011BB9002209
:1019D5007819E6300D054410F6800354EFF6791BAF
:1019E500E77819666016E6FFF580E5A0541F44A068
:0C19F500F5A0E5A0541FF5A0781BA60784
:011A010022C2
:101A02007819E6300E054420F6800354DFF6791B80
:101A1200E77819666016E6FFF580E5A0541F44A03A
:0C1A2200F5A0E5A0541FF5A0781BA60756
:011A2E002295
:101A2F007819E6300F054440F6800354BFF6791B52
:101A3F00E77819666016E6FFF580E5A0541F44A00D
:0C1A4F00F5A0E5A0541FF5A0781BA60729
:011A5B002268
:101C2300759850438E01538EFB75D7E675D6FF43E7
:071C33008E10D2ACD2AF22EB
:081D0C008F993099FDC2992264
:051D1400007F03DFFE6B
:011D190022A7
:101C4F00C2AFE4FED290121D14C290121D140EBE2C
:041C5F0008F2D2AF06
:011C6300225E
:1018CC00E4F5D9F5F9F5E9121C4FD2DE309103306D
:1018DC00DFFAC2DE20DF1CAFF9EFFEADE9EDFFACA5
:1018EC0006E41201317B967A43798B783C12002600
:0818FC0002016AC2DFE4FEFFF5
:0119040022C0
:101C8B00E4FEC297EF1392A3EFC313FFD2970EBEDE
:021C9B0008F04F
:011C9D002224
:101C6400C29300C29700D29300121C8BAF05121CC2
:041C74008BC293226A
:10197400E4FDC29300C29700D29300121C8BE4FFD3
:10198400C297EDC313FD30A303430580D2970FBF65
:1019940008EEC29300C29700D29700C2A300D2A35C
:0319A40000AF058C
:0119A700221D
:061777008B248A2589265F
:10177D00E4FD7F8E121C647D807F80121C64E4FC6E
:10178D00EC25E0FFC374849FFFAB24AA25A9268C0A
:10179D008275830012054FFE75F00A84C454F0FD66
:1017AD00EE75F00A84ED25F0FD121C640CBC03D01F
:0717BD007D807F8E021C6499
:061905008B238A248925D2
:10190B00C2AFE4FCEC25E0FFC374859FFF12197492
:10191B00EFC4540F75F00AA4FEEF540F2EAB23AA9D
:10192B0024A9258C8275830012058E0CBC03D5D29D
:01193B00AFFC
:01193C002288
:101C0A007FFF121C1B7FFF121C1B7FFF121C1B7FF6
:011C1A00FFCA
:081C1B0000AE071FEE70F92274
:101C9E00D2A1D2A07F05121C1BC2A17F05121C1B54
:031CAE00C2A022AF
:101CD500C2A1D2A07F05121C1BD2A17F05021C1B2D
:021A5C00AD07D4
:101A5E00E4FCC2A07F05121C1BED30E704D2A1806E
:101A6E0002C2A17F05121C1BD2A0ED25E0FD7F0551
:091A7E00121C1B0CBC08DBC2A009
:011A8700223C
:101B4200E4FCD2A07F05121C1BED25E0FD30A103B1
:101B5200430501C2A07F05121C1B0CBC08E4AF05A3
:011B62002260
:101A8800AB05121C9E7FA0121A5C121A9AAF0312A1
:021A98001A5CD6
:101A9A00D2A07F05121C1BA2A1E433FDC2A07F05C0
:051AAA00121C1BAF053A
:011AAF002214
:101BBA00C2A0EF24FF92A17F05121C1BD2A07F05B1
:0C1BCA00121C1BC2A0D2A17F05021C1B34
:021AD700AB075B
:101AD900121C9E7F90121A8F121C9E7F91121A5C03
:101AE900121A9A121B42AD077F01121BBA121CD59A
:021AF900AF0537
:011AFB0022C8
:101B8100AB07121C9E7F90121A5C121A9A7F4012A8
:0D1B91001A5C121A9AAF03121A5C021A9A1B
:10180D008B248A258926121A88121C9E7FA1121AF2
:10181D005C121A9AAF281528EF6024121B42AB24D4
:10182D000526E526AA257002052514F9EF12057C7B
:10183D00E5286004E4FF80027F01121BBA80D50207
:02184D001CD5A8
:10184F008B238A248925121A88AF271527EF601F4B
:10185F00AB230525E525AA247002052414F91205EA
:10186F0036FF121A5C121A9A7FC8121C1B80DA12EA
:10187F001CD5121C0A7FFF121C1B121C0A7FFF02B1
:02188F001C1B20
:041BD6007F057E0009
:101BDA00EF1FAA0670011E4A600BE4FDEDC3940CC8
:051BEA0050EE0D80F734
:011BEF0022D3
:021B6300A907D0
:101B6500E4FBC294E9139294121BD6D294E9C313F1
:0C1B7500F90BBB08ED7F057E00021BDAB7
:101BF000E4FBC294ECC313FCD294309403430480FE
:091C0000121BD60BBB08EBAF046C
:011C090022B8
:101AB000C201D2947F0C7E00121BDAC2947F507E4A
:101AC00000121BDAD2947F0A7E00121BDAA29492D3
:061AD00001121BD6A20169
:011AD60022ED
:10189100121AB07FCC121B637F44121B637FC87E78
:1018A10000121BDA121AB07FCC121B637FBE121B0F
:1018B10063121BF0A907121BF0EFAD01FCEC120142
:0B18C10031E4FBFA7980783D0200263C
:10002600EC4D6011E8497017ED33EC3304600DE4D4
:10003600FCFFFEFD22E933E8330470F80201D61214
:1000460001A158046009E4CC248150062850090215
:1000560001E02840030201DDC0E0EB4A7044B980AC
:1000660006D0E0FB0201CCEF4E701CBD8008EBFF12
:10007600EAFEE9FD80EBE98DF0A4FEE5F002010F52
:10008600E9CDF9EAFEEBFFEF89F0A4FCE5F0CE89B5
:10009600F0A42EFFE435F0CD89F0A42DFEE435F072
:1000A6008067EF4E7005BD80D780C3EF8BF0A4ACA0
:1000B600F0EE8BF0A42CFCE435F0F8EF8AF0A42CDB
:1000C600E5F038FCE433CB8DF0A42CFCE5F03BF8EE
:1000D600EE8AF0A42CFCE5F038F8E433CF89F0A4DE
:1000E6002CFCE5F038CF3400CE89F0A42FFFE5F0E4
:1000F6003EFEE433C98DF0A42EFEE5F039CD8AF03C
:10010600A42FFFE5F03EFEE43DFD33D0E0FB5007B3
:100116000BBB000F0201E0EC2CFCEF33FFEE33FECD
:06012600ED33FD0201B8FB
:10012C0075F020800E75F010800575F0087D007E4E
:10013C00007F003392D530D503120624EC334010E7
:10014C00EF33FFEE33FEED33FDEC33FCD5F0ED2257
:0E015C00E5F0247EA2D513CC92E7CDCEFF2293
:10016A00EDD2E7CD33EC3392D524814006E4FFFE8D
:10017A00FDFC22FCE4CFCECDCC24E0501174FF80EC
:10018A00EDC3CC13CCCD13CDCE13CECF13CF047089
:07019A00F030D5DE0206245F
:10071B00E53C2428F8E6053C2278253008027828A9
:10072B00E475F00112068B0205362001EB7F2ED209
:10073B00018018EF540F2490D43440D4FF30050BB4
:10074B00EF24BFB41A0050032461FFE53D6002158E
:10075B003D0540E5407002053F30080D7825E475F6
:10076B00F00112068BEF02057C021D0C7403D208FC
:10077B008003E4C208F53C8B258A268927E4F53DE6
:10078B00F53FF540E53D60077F2012075680F57574
:10079B003EFFC202C201C203C204C206C207C209A3
:1007AB00120724FF700D3008057F00120767AF405A
:1007BB00AE3F22B4255FC2D5C205120724FF24D059
:1007CB00B40A00501A75F00A783D30D50508B6FF0B
:1007DB000106C6A426F620D5047002D20480D924C3
:1007EB00CFB41A00EF5004C2E5D205020A54D2026C
:1007FB0080C6D20180C0D20380BCD2D580BAD206CB
:10080B0080B47F201207562003077401B53D0040CA
:10081B00F112071BFF12075602078FD209D207806E
:10082B009512071BFB12071BFA12071BF94A4B7099
:10083B0006794B7A0B7BFF20032EE53D602A7E0069
:10084B008E8275830012054F60060EEE653E70F0CA
:10085B00C2D5EBC0E0EAC0E0E9C0E0EE120AB4D0CA
:10086B00E0F9D0E0FAD0E0FB120536FF60AAEBC04E
:10087B00E0EAC0E0E9C0E0120756D0E02401F9D06D
:10088B00E03400FAD0E0FBE53E0460DCD53ED980D5
:10089B0087D20380A2120A9760F7E53E700104121B
:1008AB0001EBA93E600DE53E600914F53E120B3ECF
:1008BB00EF60F3EA30E702F404C3995077EAF425CA
:1008CB003E0430E701E404F53E800D120A9760C147
:1008DB00EA053E253E1201EBEA783BF630E701E4F0
:1008EB00253E04D53E0420060114120AB4E4C0E0F0
:1008FB00120B3E783BE6601320E70714F612073E17
:10090B00802204F6D0E014C0E07F0012073EE53EE3
:10091B006007120735153E800B300603120735D0E2
:10092B00E002078FD0E00480C5120A9760A0E53E75
:10093B00041201EB783BEAF6E53E20060260010467
:05094B002404120AB4AF
:1009500074FF04C0E0120B3E12073EE53E20060283
:100960006003120735D0E0B53EE87F4512074878AE
:100970003BE67F2B30E7047F2DF404C0E0120756DE
:10098000D0E075F00A84C0F012073FD0E012073FB4
:1009900002078F791080027908C207C2098008D245
:1009A000D5790A8004790AC2D5E53E047002F53E85
:1009B000E4FAFDFEFF12071BFC7B0820021312075E
:1009C0001BFD7B1030010A12071BFE12071BFF7B69
:1009D00020EC3382D592D55013C3E43001069FFF3B
:1009E000E49EFEE42002039DFDE49CFCE4CBF8C2FF
:1009F00002EC700CCFCECDCCE824F8F870F3801761
:100A0000C3EF33FFEE33FEED33FDEC33FCEB33FB92
:100A1000994002FB0FD8E9EB300205F8D0E0C4485A
:100A2000B202C0E00AEC4D4E4F78207B0070C2EA63
:100A3000B53E0040BCC0E0120AB6D0F0D0E02002C3
:100A400004C4C0E0C4B202C0F012073FD0F0D5F039
:100A5000EB02078F1206AB082C5309935807FD4C85
:100A600007F94209974F099F44099F490812430912
:100A7000A55508D64609344508A0470B6B50080118
:100A80002D08052E08282B0809230826200B542A98
:100A900007C14800000820E53EB4FF03753E06127A
:100AA000071BFC12071BFD12071BFE12071BFF781A
:100AB0003402021A790AA2D5200414300609B910AA
:100AC000020404B9080104A2D52007025001042041
:100AD00003689203B53D005034C0E07F2030041914
:100AE0007F30A20372077206500F120B0DC203C2B1
:100AF00007C206C2097F30800F300603E9C0E0124A
:100B00000756300603D0E0F9D0E0B53DCC300617EB
:100B10007F30B9100C1207567F583005077F788058
:100B200003B908031207563003057F2D0207567FCD
:100B3000202009F87F2B2007F322920380CF7F002B
:100B4000B4070050052434F8E6FF22286E756C6C5B
:100B50002900D20212071B3002F8C202783D30D5BC
:100B60000108F60207C12D5043495812071B240300
:100B7000B405004001E4900B6693120747743A12E3
:0A0B80000747D204753D04020993F3
:100B8A00E53A30040104F823282428F8227825308D
:100B9A0004027828E475F00112068B02053660EC2F
:100BAA00C53E7002153D14C53E200404FF021D1AFD
:100BBA00782574FFF5F002069BFF021CB1E53B6045
:100BCA0006D53B037F002220040F121CC4EF6008E5
:100BDA00053EE53E7002053D227825120682120581
:100BEA0036FF60E97825E475F00112068B80DE1283
:100BFA000BD1EFC0E0120BC3D0E040F380A0D204C7
:100C0A008002C2048B258A268927E4F53CF53AF549
:100C1A003DF53E753B00C203C201C202C205120B7A
:100C2A0097FF7005AF3C7E0022B42530120B97FF68
:100C3A0024D0B40A00500C75F00AC53BA4253BF534
:100C4A003B80E924CFB41A00EF5002C2E5020EA598
:100C5A00D20280D8D20180D4D20580D0EF120BC341
:100C6A005008120BF9EF600E80A9EFC0E0120BD109
:100C7A00D0E06F609EEF6074120BA880A7120BD1B0
:100C8A00EF6069E53B7007053B8003120BD1EF600B
:100C9A001420050E120B8AE475F00112068BEF126E
:100CAA00057CD53BE6200504053A053C80BA120BC3
:100CBA00C7EFC0E0120BC3D0E05004120BA8E4FF48
:100CCA0020050E120B8AE475F00112068BEF12054D
:100CDA007CEF70DA200504053A053C808BE53B6021
:100CEA0002053B120BF9120BC7EF70C6300404E47D
:100CFA00120BA8E53C6003020C2E7EFF7FFF22E563
:100D0A003B6002053B120BF9D207D206120BC7EF62
:100D1A0030070260D7C0E0120BA8D0E0AC3FAD406C
:100D2A00AE41AF4212120D8C3F8D408E418F425020
:100D3A0007120BD1C20680D4200510200602053CFA
:080D4A00120B8A120682053A21
:100D5200120643020C1DD0E0809A7900800A7910B5
:100D6200800679088002790AD206E53B6002053BDB
:100D7200E9C0E0120BF9EF60DD120BD1BF2D04D2F6
:100D8200038003BF2B09120BF9EF60CA120BC7D005
:100D9200E0B40A028033B40802802EBF302770020A
:100DA2007408C206C0E0120BC7D0E0BF780280030D
:100DB200BF5816053BD53B028007D53B04D20680BF
:100DC2000B741080197002740ABF000AEFF8E4FC79
:100DD200FDFEFF020E58C0E0EF120BA8D0E0F9E4CE
:100DE200FCFDFEFFE9C0E0ECC0E0EDC0E0EEC0E0DB
:100DF200EFC0E0120BC7EFF8D0E0FFD0E0FED0E08A
:100E0200FDD0E0FCD0F0E8604DB461004007B47B57
:100E1200005002C2E524D0503DFA24F6500724F9CE
:100E22005034240AFAEAB5F000502BCFA9F0A42FCF
:100E3200FF92D5E9C5F0CEA4A2D53EFE92D5E9C572
:100E4200F0CDA4A2D53DFD92D5E9C5F0CCA4A2D5A2
:100E52003CFCC206808EE8C0E020052A2006080578
:100E62003C300303120624120B8A120682053A2032
:100E7200010B20020DEE8FF01206058009120643C7
:100E82008004EF12057CD0E0120BA8020C1D200595
:100E920010120B8A120682053AE53D853EF01206D3
:100EA2000580E81206AB0CE7530D60580C5E4C0C43
:100EB2005A420C36480D644F0D68440C87430D5C52
:100EC200490D68550D09460D09450D09470C622A61
:070ED2000E904E00000C66BB
:1001A100E9D2E7C933E833F892D5EDD2E7CD33ECA4
:0701B10033FC5002B2D5221D
:1001B800EC30E7100FBF000C0EBE00080DBD0004A8
:1001C8000BEB6014A2D5EB13FCED92E7FD2274FF54
:1001D800FCFDFEFF22E480F8A2D574FF13FC7D80AD
:0301E800E480EFC1
:1001EB00F920E72824F950037907E4F42402FB18DB
:1001FB00DBFDE624FB5014E9600DE4F618E604F68B
:0F020B00B40A08E4F6D9F57401F60A22C2D52226
:10021A00ED33EC3392D5FA602AB4FF33EDC2E77BB3
:10022A00FF60067A02793FE4227A02794820D504EF
:10023A007A027943224E614E002B494E46002D49DF
:10024A004E4600E47A08F608DAFC7B00740722E8D6
:10025A00C0E0ECC0E0EDC0E0EEC0E0EFC0E0EA755F
:10026A00F010A4CAABF075F04DA42BFBE435F0FCFA
:10027A00EA2410FAEB34C5FBEC34D9FCEDC2E7FFF3
:10028A0075F056A4F42411C5F0F434C58FF0A42AED
:10029A00E5F03BE43CF620E7141204F6D0E0FFD088
:1002AA00E0FED0E0FDD0E0FC1204188014F4041241
:1002BA0004F6D0E0FFD0E0FED0E0FDD0E0FC120072
:1002CA0026D0E0F8E6FAEDD2E7CD33EC332482FB10
:1002DA00E4C3CF33CFCE33CECD33CD33DBF37B077D
:1002EA0075F00A846004F6081B0AE5F0F6088FF038
:1002FA00740AA4FFACF08EF0740AA42CFEACF05081
:10030A00010C8DF0740AA42CFDE435F0F608DBDE4E
:03031A0074072243
:1011FA00C208C209C20AC20BF9E4F543F544FCFD70
:10120A00FEFFE91007EA200A0CB42D04D20AD32201
:10121A00B42B02D32224D0504794095041240A30D7
:10122A000B15F88544F0740AA42872E74051C5F0FA
:10123A00704D85F044D322D209C0E0E4FBFA79204C
:10124A007841120026ECF8EDF9EEFAEFFBD0E0FC5B
:10125A00E41201361203243008B41543D322240AB7
:10126A00200B20B4FE0720081AD208D32224EB60F0
:10127A000424E0700EA20A9208D20BC20AD322C337
:10128A000201D6E4300B0BE544300A02F404A2084A
:10129A00920A3009EA254320D2E5A2E7920B5002CE
:1012AA00F404B4260050D8CCC0E0EDC0E0EEC0E0B3
:1012BA00EFC0E0EC1204F6D0E0FFD0E0FED0E0FD93
:1012CA00D0E0FC200B051200268003120418300A15
:0612DA00031204B5C3225B
:10031D000201D6E86480F8E933E83360110460F037
:10032D00ED33EC337009E8FCE9FDEAFEEBFF220446
:10033D0060DED3EB9FEA9EE99DE8C2E78CF0C2F741
:10034D0095F0400CE8CCF8E9CDF9EACEFAEBCFFB0D
:10035D001201A185D0F05804700320D5B3E80470C4
:10036D00075002B2D50201E092D5EC0460F7E4CC5F
:10037D00C0E0C398F8603B94186008400DD0E0FBD6
:10038D000201B8E4FBFAC9FC8028E830E406E4C9B0
:10039D00FBE4CAFCE830E305E4C9CACBFCE854072A
:1003AD006010F8C3E913F9EA13FAEB13FBEC13FC35
:1003BD00D8F130F52FC3E49CFCEF9BFFEE9AFEEDD8
:1003CD0099FDD0E0FBEF4E4D4C701222DB03020184
:1003DD00DDEC2CFCEF33FFEE33FEED33FDED30E7BE
:1003ED00EB0201B8EF2BFFEE3AFEED39FDD0E0FB4D
:1003FD0050130BBB00030201E0ED13FDEE13FEEFF6
:08040D0013FFEC13FC0201B81F
:100415000201E0EC5D046005E8590470030201D6B1
:100425001201A1580460F6EC4860F2EC7004FDFE80
:10043500FF22C860DB2481C85009C39860025006BA
:100445000201DD9850CAF582E9294B4A7005AB8255
:100455000201CC75F0007C1A7880C3EF9BEE9AED13
:1004650099400DC3EF9BFFEE9AFEED99FDE842F032
:10047500DC23ACF0D0E0FFD0E0FED0E0FDAB822085
:10048500E7101BEB60BAEC2CFCEF33FFEE33FEED0F
:1004950033FD0201B8E803F830E705C0F075F00058
:1004A500EF2FFFEE33FEED33FD40B830E7C280AAF3
:1004B500ED33EC33600A047003BD8004ECB2E7FC55
:0104C5002214
:1004C6003F8000004120000042C80000447A00003E
:1004D600461C400047C35000497424004B189680C0
:1004E6004CBEBC205A0E1BCA6753C21C749DC5AEB7
:1004F600FB60065407601C2323120524EB54386066
:100506000912051012051F120026ECF8EDF9EEFA95
:10051600EFCB22EB12051F80F1543803241C900404
:10052600C6FE93FC0EEE93FD0EEE930ECE93FF22C7
:030000000214D710
:0C14D700787FE4F6D8FD7581BE02151E7A
:10053600BB010689828A83E0225002E722BBFE02C3
:09054600E32289828A83E49322F6
:10054F00BB010CE58229F582E5833AF583E0225061
:10055F0006E92582F8E622BBFE06E92582F8E222AB
:0D056F00E58229F582E5833AF583E49322C5
:10057C00BB010689828A83F0225002F722BBFE015E
:02058C00F32258
:10058E00F8BB010DE58229F582E5833AF583E8F0A3
:10059E00225006E92582C8F622BBFE05E92582C84F
:0205AE00F22237
:1005B000BC000BBE0029EF8DF084FFADF022E4CC2F
:1005C000F875F008EF2FFFEE33FEEC33FCEE9DECF8
:1005D000984005FCEE9DFE0FD5F0E9E4CEFD22ED3E
:1005E000F8F5F0EE8420D21CFEADF075F008EF2F88
:1005F000FFED33FD4007985006D5F0F222C398FD79
:050600000FD5F0EA2215
:10060500BB010A89828A83F0E5F0A3F0225006F740
:0F06150009A7F01922BBFE06F3E5F009F319223D
:0E062400C3E49FFFE49EFEE49DFDE49CFC22E7
:10063200EB9FF5F0EA9E42F0E99D42F0E89C45F01E
:010642002295
:10064300BB010789828A830207035005E9F8020682
:0A06530076BBFE05E9F802070F224E
:0C065D00E6FC08E6FD08E6FE08E6FF22C9
:0D066900E6FB08E6F908E6FA08E6CBF82201
:0C067600ECF608EDF608EEF608EFF622B0
:09068200E6FB08E6FA08E6F9229D
:10068B00FAE6FB0808E6F925F0F618E6CA3AF62270
:10069B00FAE6FB0808E625F0F9F618E63AFAF62230
:1006AB00D083D082F8E4937012740193700DA3A3DE
:1006BB0093F8740193F5828883E4737402936860F2
:0606CB00EFA3A3A380DFF2
:0606D1008A838982E473B4
:101CC40010100B121CF0BF0D027F0A021D0CAF177F
:011CD40022ED
:051D1A008F17D210221A
:101CB100EFC394094005EF940E4003BF2003D38086
:031CC10001C3223A
:1006D700EF4E6012EF60010EEDBB010B89828A833A
:1006E700F0A3DFFCDEFA2289F05007F709DFFCA947
:0C06F700F022BBFEFCF309DFFCA9F0229E
:1014E30002171CE493A3F8E493A34003F68001F2EC
:1014F30008DFF48029E493A3F85407240CC8C3330A
:10150300C4540F4420C8834004F456800146F6DFD8
:10151300E4800B010204081020408090138CE47EC9
:10152300019360BCA3FF543F30E509541FFEE493CD
:10153300A360010ECF54C025E060A840B8E493A394
:10154300FAE493A3F8E493A3C8C582C8CAC583CABF
:10155300F0A3C8C582C8CAC583CADFE9DEE780BE77
:0114310000BA
:0C070300ECF0A3EDF0A3EEF0A3EFF02269
:0C070F00ECF208EDF208EEF208EFF22226
:0A1CF0003098FDAF99C2987E0022E3
:00000001FF
