:0C170200E9A291E78E87203D20257500AC
:101329004800080A0A0A0A0A0A0A0A4800000000CC
:10133900000000000000033E0D0305044140A00029
:0F1349000001361E4800100000000000000000E8
:1010FF00E53C60030211CD753C011212D28F3BE526
:10110F003B653AFF553BF537E53BF45FF547853BCC
:10111F003AE53724FB601D24FD603C14602824054C
:10112F007044E5256403603E0525E52564037036AC
:10113F00F5258032E5256401702C0522E522640334
:10114F007024F5228020E525B4021B1536E536B450
:10115F00FF14753663800FE525B4020A0536E536B0
:10116F00B46403E4F536E52564017052E5226402A8
:10117F00704CE537B40902D20AE5476409703FD3D2
:10118F00E52794D0E52694074034C20AE4781CF68C
:10119F00781412074100000000780B12074100007D
:1011AF000000E47813F618F6780AF6781BF678182C
:0F11BF00F6780FF67819F608F67810F608F6228B
:100BFF00E5396003020FE07539017B007A00793E19
:100C0F001213C57F41121566AC07E4120347E4FBCC
:100C1F00FA794C78421202278F448E438D428C41D1
:100C2F001216F5E4FFFE7D407C40AB44AA43A94277
:100C3F00A8411202C460054003020D863009030269
:100C4F000D86D20912151712037B781BA607C3E571
:100C5F002B94C8E52A94005003020D47D3E52B943B
:100C6F00D0E52A94074003020D4778457C007D00AC
:100C7F007B007A00793E7E007F0212066E781C069A
:100C8F00AC2AAD2BE41203427B617A0B7936783DA7
:100C9F0012011E7BE47A38798E783F12002D1203F1
:100CAF007B7812EFF6781BE6781126F618E436F605
:100CBF00781AEF26F618E436F6781CE6FCE41203F1
:100CCF0047C004C005C006C0077810E6FC08E6FD63
:100CDF00E4120342D003D002D001D00012022778D1
:100CEF000B120735781CE6FCE4120347C004C0055D
:100CFF00C006C0077819E6FC08E6FDE4120342D0EF
:100D0F0003D002D001D000120227781412073578D1
:100D1F000AE6FF781BE6FED39F4004AF06800078FB
:100D2F000FA6077813E6FF18E6FED39F4004AF0621
:100D3F0080007818A6078004E47812F6E52564038E
:100D4F006003852549752503781BE6FFD3780A963E
:100D5F0040157912E7D3781396400C781CE6D3949C
:100D6F000140047E0180027E00900015EEF0780AAB
:100D7F00A6077812E608F6E52514605D14700302E5
:100D8F000F5E147003020F8824036003020FE090BC
:100D9F00000D740BF090000AF0E53E75F00A849098
:100DAF000008F0E53E75F00A84A3E5F0F0E53F7525
:100DBF00F00A8490000BF0E53F75F00A84A3E5F08C
:100DCF00F0E54075F00A8490000EF0E54075F00AEA
:100DDF0084A3E5F0F0E4F52222E5226003020E6E13
:100DEF00900008740CF0A3740AF0781CE690000CC5
:100DFF006057740BF0780FE6FF75F00A8490000AC5
:100E0F00F0EF75F00A84A3E5F0F0780B12071C12CF
:100E1F00037BEF75F00A8490000DF0EF75F00A84F4
:100E2F00A3E5F0F0E4FFFE7D207C41780B1207284C
:100E3F0012011E12037BEF75F00A8490000FE5F08C
:100E4F00F09000067401F08016740AF090000AF01A
:100E5F00A3F090000DF0A3F0A3F0E4900006F0E5EE
:100E6F002264016003020EF6900008740DF0A37463
:100E7F000AF0781CE690000C6057740BF07818E6B7
:100E8F00FF75F00A8490000AF0EF75F00A84A3E56D
:100E9F00F0F0781412071C12037BEF75F00A8490A0
:100EAF00000DF0EF75F00A84A3E5F0F0E4FFFE7D8E
:100EBF00207C41781412072812011E12037BEF7554
:100ECF00F00A8490000FE5F0F09000067401F080B6
:100EDF0016740AF090000AF0A3F090000DF0A3F042
:100EEF00A3F0E4900006F0E52264026003020FE035
:100EFF00900008740EF0781CE6FF75F00A84A3F0DA
:100F0F00EF75F00A84A3E5F0F0E4900006F0E660D8
:100F1F002F90000D740BF0E54575F00A8490000BCF
:100F2F00F0E54575F00A84A3E5F0F0E54675F00AA3
:100F3F008490000EF0E54675F00A84A3E5F0F022E8
:100F4F0090000B740AF0A3F0A3F0A3F0A3F022908B
:100F5F000008740FF0A3740AF0A3F0A3F0A3F0A39A
:100F6F00F0E53675F00A84A3F0E53675F00A84A330
:100F7F00E5F0F0E4900006F0229000087410F09075
:100F8F00000A740AF0900009F0E4900006F0900057
:100F9F000D740BF0781BE6FF75F00A8490000BF0D0
:100FAF00EF75F00A84A3E5F0F07812E66015E6FF1E
:100FBF0075F00A8490000EF0EF75F00A84A3E5F047
:100FCF00F0800890000E7411F0A3F02009038549FA
:020FDF002522C9
:10137D00E4FFEFB525047E0180027E0074102FF589
:10138D0082E43400F583EEF00FBF02E6E525B403E9
:10139D00047F0180027F00900012EFF0A20BE43376
:1013AD00A3F07812E67009781BE660047F018002D5
:0713BD007F00900014EFF027
:0113C4002206
:10166800E53870127538017BFF7A177902852A4DA3
:07167800852B4E1207F22240
:1016C000538E7F5389F0438905E4F58AF58CC28DEA
:0316D000D28C2297
:10169600538EBF53890F758B18758DFCC28FD28EF2
:0516A600D2ABD2AF221F
:03001B00020FE1F0
:100FE100C0E0C0F0C083C082C0D075D000C000C0D6
:100FF10001C002C003C004C005C006C007053CE52E
:101001003CB40A03753C000539E539B4FA03753976
:1010110000053DE53DB40803753D007408253DF527
:1010210082E43400F583E0FD7C007400253DF58207
:10103100E43400F583E0FB7A00AF3D1214807410B4
:10104100253DF582E43400F583E0FD7C00AF3D12DF
:1010510014450538E538B4FA037538000524E5244C
:1010610070020523FFAE23BE031DBFE81A752300DE
:10107100752400C28CAF8CEFAD8AF52AEDF52B7586
:101081008A00758C00D28C3009190529E529700276
:101091000528FFAE28BE0B0BBFB8087528007529BF
:1010A10000C209300A190527E52770020526FFAE9F
:1010B10026BE0911BFC40E7526097527C4800675A1
:1010C1002600752700781BE6D3953640110548E5C3
:1010D10048B4640F754800A20BB3920B80057548A4
:1010E10000C20BD007D006D005D004D003D002D067
:0E10F10001D000D0D0D082D083D0F0D0E03239
:1014BA001215E31216C012169612167F1216F57F2F
:1014CA00411215667B007A00793E12125A7B007A25
:1014DA0000793E1213C51210FF120BFF12137D8002
:0114EA00F50C
:1016D300E4FEC297EF1392A3EFC313FFD2970EBE9C
:0216E30008F00D
:0116E50022E2
:0616000025F0FDEC3EFCAC
:10160600C29300C29700D293001216D3AF051216EA
:04161600D3C2932286
:08140900C4540F75F00AA4FCA5
:10141100E4FDC29300C29700D293001216D3E4FFF9
:10142100C297EDC313FD30A303430580D2970FBFCD
:1014310008EEC29300C29700D29700C2A300D2A3C4
:0314410000AF05F4
:011444002285
:10125A00E4FDFC7F8E12160612069475F00A847558
:10126A00F010A4FFAEF012069475F00A84EF7F84A2
:10127A001216009000011206AD75F00A8475F0107E
:10128A00A4FFAEF09000011206AD75F00A847C004E
:10129A00EF7F821216009000021206AD75F00A84E2
:1012AA0075F010A4FFAEF09000021206AD75F00AB8
:1012BA00847C00EF25F0FDEC3EFC7F801216067D53
:0812CA00807C007F8E021606F5
:1013C5007F85121411EF7F85121409EF540F2C122B
:1013D50006DA7F83121411EF7F83121409EF540F7D
:1013E5002C9000011206EC7F81121411EFC4540FEA
:1013F50075F00AA4FC7F81121411EF540F2C900094
:04140500020206ECED
:04161A00D2A07F0AD1
:10161E00000000000000000000000000000000AE0E
:06162E00071FEE70EB2225
:0F16E600D2A112161AC2A17F0A12161EC2A0228A
:0C170E00C2A112161AD2A17F0A02161EF8
:0214EB00AD074B
:1014ED00E4FCC2A07F0A12161EED30E704D2A180E3
:1014FD0002C2A17F0A12161ED2A0ED25E0FD7F0AC1
:09150D0012161E0CBC08DBC2A082
:0115160022B2
:1015A900E4FC12161AED25E0FD30A103430501C242
:0C15B900A07F0A12161E0CBC08E8AF054B
:0115C5002203
:0B15C6001214EB1215D1AF031214EB4E
:1015D10012161AA2A1E433FDC2A07F0A12161EAF91
:0115E1000504
:0115E20022E6
:10000300C2A0EF24FF92A17F0A12161E12161AC273
:08001300A0D2A17F0A02161E13
:02156600AB07D1
:101568001216E67F901215C61216E67F911214EB3A
:101578001215D11215A9AD077F0112000312170E1B
:02158800AF05AD
:01158A00223E
:1016AB00AB071216E67F901214EB1215D17F411285
:0516BB0015C602170E28
:1015E3007580FFE5A0541F4480F5A053A01FE4F5C8
:0D15F30080E5A0541F44A0F5A053A01F22C6
:1012D200E4FFC2C4D2C2D2B5D2B420B3027F04208A
:1012E200B2027F0520B1027F0620B0027F07D2C47E
:1012F200C2C2D2B5D2B420B3027F0820B2027F09A3
:1013020020B1027F0A20B0027F0BD2C4D2C2C2B582
:10131200D2B420B3027F0C20B2027F0D20B1027F33
:061322000E20B0027F0F57
:0113280022A2
:061358000108000109FF7D
:10144500ED4C600F7401A807088002C333D8FC4235
:1014550008800E7401A807088002C333D8FCF45233
:1014650008E50865096013E508F4F580E5A0541F53
:0A1475004480F5A053A01F8508096C
:01147F00224A
:041634007F057E00B0
:10163800EF1FAA0670011E4A600BE4FDEDC3940C6F
:0516480050EE0D80F7DB
:01164D00227A
:02158B00A907AE
:10158D00E4FBC294E9139294121634D294E9C31376
:0C159D00F90BBB08ED7F057E000216383C
:10164E00E4FBC294ECC313FCD294309403430480A5
:09165E001216340BBB08EBAF04BB
:011667002260
:10153F00C20DD2947F0C7E00121638C2947F507E5B
:10154F0000121638D2947F0A7E00121638A2949297
:06155F000D121634A20D6E
:011565002263
:0D16F50012153F7FCC12158B7F4402158B20
:1015170012153F7FCC12158B7FBE12158B12164EFC
:10152700A90712164EEFAD01FCE4120342E4FBFAE1
:0715370079807841120227C0
:01153E00228A
:10135E00087801020408102040801266C0F9A4B07B
:0E136E00999282F88090FFBFC6898E8C868887
:101480007580FFE5A0541F44E0F5A053A01F7478B9
:101490002FF8E6F580E5A0541F44C0F5A053A01F27
:1014A00074662DF8E6F580EB4A600353807FE5A073
:0A14B000541F44E0F5A053A01F22D2
:10167F00759850438E01438E0475D7C775D6FE43B8
:07168F008E10D2ACD2AF2295
:08171A00200CFDD20C8F992276
:030023000217229F
:08172200309904C299C20C3297
:100026000203E7E86480F8E933E83360110460F01E
:10003600ED33EC337009E8FCE9FDEAFEEBFF220440
:1000460060DED3EB9FEA9EE99DE8C2E78CF0C2F73B
:1000560095F0400CE8CCF8E9CDF9EACEFAEBCFFB07
:100066001203B285D0F05804700320D5B3E80470AB
:10007600075002B2D50203F192D5EC0460F7E4CC46
:10008600C0E0C398F8603B94186008400DD0E0FBD0
:100096000203C9E4FBFAC9FC8028E830E406E4C997
:1000A600FBE4CAFCE830E305E4C9CACBFCE8540724
:1000B6006010F8C3E913F9EA13FAEB13FBEC13FC2F
:1000C600D8F130F52FC3E49CFCEF9BFFEE9AFEEDD2
:1000D60099FDD0E0FBEF4E4D4C701222DB0302037C
:1000E600EEEC2CFCEF33FFEE33FEED33FDED30E7A7
:1000F600EB0203C9EF2BFFEE3AFEED39FDD0E0FB34
:1001060050130BBB00030203F1ED13FDEE13FEEFDC
:0801160013FFEC13FC0203C906
:10011E00EC4D6011E8497017ED33EC3304600DE4DB
:10012E00FCFFFEFD22E933E8330470F80203E71208
:10013E0003B258046009E4CC248150062850090209
:10014E0003F12840030203EEC0E0EB4A7044B9808D
:10015E0006D0E0FB0203DDEF4E701CBD8008EBFF06
:10016E00EAFEE9FD80EBE98DF0A4FEE5F002020760
:10017E00E9CDF9EAFEEBFFEF89F0A4FCE5F0CE89BC
:10018E00F0A42EFFE435F0CD89F0A42DFEE435F079
:10019E008067EF4E7005BD80D780C3EF8BF0A4ACA7
:1001AE00F0EE8BF0A42CFCE435F0F8EF8AF0A42CE2
:1001BE00E5F038FCE433CB8DF0A42CFCE5F03BF8F5
:1001CE00EE8AF0A42CFCE5F038F8E433CF89F0A4E5
:1001DE002CFCE5F038CF3400CE89F0A42FFFE5F0EB
:1001EE003EFEE433C98DF0A42EFEE5F039CD8AF043
:1001FE00A42FFFE5F03EFEE43DFD33D0E0FB5007BB
:10020E000BBB000F0203F1EC2CFCEF33FFEE33FEC1
:06021E00ED33FD0203C9EF
:100224000203F1EC5D046005E8590470030203E77E
:100234001203B2580460F6EC4860F2EC7004FDFE60
:10024400FF22C860DB2481C85009C39860025006AD
:100254000203EE9850CAF582E9294B4A7005AB8235
:100264000203DD75F0007C1A7880C3EF9BEE9AEDF3
:1002740099400DC3EF9BFFEE9AFEED99FDE842F025
:10028400DC23ACF0D0E0FFD0E0FED0E0FDAB822078
:10029400E7101BEB60BAEC2CFCEF33FFEE33FEED02
:1002A40033FD0203C9E803F830E705C0F075F00038
:1002B400EF2FFFEE33FEED33FD40B830E7C280AAE6
:1002C40074F8CC6480CCC86480C8F58204604FC3E1
:1002D400EB9FF5F0EA9E42F0E99D42F0E89C45F080
:1002E400603C501DE5825FFFE582D313CB5BCBF40A
:1002F4002B5582FB50280ABA002409B90020088033
:100304001DE5825BFBE582D313CF5FCFF4C3132FCC
:100314005582FF50090EBE00050DBD00010CC3EB54
:100324009FF5F0EA9E42F0E99D42F0E89C45F060BA
:0903340007CC4820E701B3EC22DC
:10033D0075F020800E75F010800575F0087D007E3B
:10034D00007F003392D530D50312070EEC334010E9
:10035D00EF33FFEE33FEED33FDEC33FCD5F0ED2244
:0E036D00E5F0247EA2D513CC92E7CDCEFF2280
:10037B00EDD2E7CD33EC3392D524814006E4FFFE7A
:10038B00FDFC22FCE4CFCECDCC24E0501174FF80D9
:10039B00EDC3CC13CCCD13CDCE13CECF13CF047076
:0703AB00F030D5DE02070E61
:10079000E561244DF8E6056122784A300702784D7C
:1007A000E475F00112075A0206942000EB7F2ED266
:1007B000008018EF540F2490D43440D4FF30040B41
:1007C000EF24BFB41A0050032461FFE562600215F4
:1007D000620565E5657002056430070D784AE475C9
:1007E000F00112075AEF0206DA02171A7403D20751
:1007F0008003E4C207F5618B4A8A4B894CE4F562B9
:10080000F564F565E56260077F201207CB80F5751A
:1008100063FFC201C200C202C203C205C206C2080F
:10082000120799FF700D3007057F001207DCAF65D6
:10083000AE6422B4255FC2D5C204120799FF24D04A
:10084000B40A00501A75F00A786230D50508B6FF70
:100850000106C6A426F620D5047002D20380D9244E
:10086000CFB41A00EF5004C2E5D204020AC9D20183
:1008700080C6D20080C0D20280BCD2D580BAD20558
:1008800080B47F201207CB2002077401B5620040BC
:10089000F1120790FF1207CB020804D208D206809B
:1008A00095120790FB120790FA120790F94A4B70C5
:1008B0000679C07A0B7BFF20022EE562602A7E005B
:1008C0008E827583001206AD60060EEE656370F0D1
:1008D000C2D5EBC0E0EAC0E0E9C0E0EE120B29D0DF
:1008E000E0F9D0E0FAD0E0FB120694FF60AAEBC07A
:1008F000E0EAC0E0E9C0E01207CBD0E02401F9D083
:10090000E03400FAD0E0FBE5630460DCD563D98015
:1009100087D20280A2120B0C60F7E563700104120B
:1009200003FCA963600DE563600914F563120BB362
:10093000EF60F3EA30E702F404C3995077EAF42554
:10094000630430E701E404F563800D120B0C60C111
:10095000EA056325631203FCEA7860F630E701E4F8
:10096000256304D5630420050114120B29E4C0E0BB
:10097000120BB37860E6601320E70714F61207B392
:10098000802204F6D0E014C0E07F001207B3E563D4
:1009900060071207AA1563800B3005031207AAD05F
:1009A000E0020804D0E00480C5120B0C60A0E563EF
:1009B000041203FC7860EAF6E56320050260010496
:0509C0002404120B29C4
:1009C50074FF04C0E0120BB31207B3E56320050200
:1009D50060031207AAD0E0B563E87F451207BD782A
:1009E50060E67F2B30E7047F2DF404C0E01207CBCF
:1009F500D0E075F00A84C0F01207B4D0E01207B455
:100A0500020804791080027908C206C2088008D25B
:100A1500D5790A8004790AC2D5E563047002F563C5
:100A2500E4FAFDFEFF120790FC7B08200113120774
:100A350090FD7B1030000A120790FE120790FF7B95
:100A450020EC3382D592D55013C3E43000069FFFC6
:100A5500E49EFEE42001039DFDE49CFCE4CBF8C28A
:100A650001EC700CCFCECDCCE824F8F870F38017EC
:100A7500C3EF33FFEE33FEED33FDEC33FCEB33FB1D
:100A8500994002FB0FD8E9EB300105F8D0E0C448E6
:100A9500B201C0E00AEC4D4E4F78207B0070C2EAEF
:100AA500B5630040BCC0E0120B2BD0F0D0E02001B4
:100AB50004C4C0E0C4B201C0F01207B4D0F0D5F050
:100AC500EB02080412076A08A1530A085808724C79
:100AD500086E420A0C4F0A14440A14490887430A4F
:100AE5001A55094B4609A9450915470BE0500876E3
:100AF5002D087A2E089D2B087E23089B200BC92ADA
:100B050008364800000895E563B4FF0375630612CF
:100B15000790FC120790FD120790FE120790FF78D0
:100B25005902042B790AA2D5200314300509B910FE
:100B3500020404B9080104A2D520060250010420CC
:100B450002689202B562005034C0E07F203003197C
:100B55007F30A20272067205500F120B82C202C2CA
:100B650006C205C2087F30800F300503E9C0E012D8
:100B750007CB300503D0E0F9D0E0B562CC300517DE
:100B85007F30B9100C1207CB7F583004077F78806F
:100B950003B908031207CB3002057F2D0207CB7F6F
:100BA500202008F87F2B2006F322920280CF7F00B9
:100BB500B4070050052459F8E6FF22286E756C6CC1
:100BC5002900D2011207903001F8C201786230D5B0
:100BD5000108F60208362D504349581207902403A0
:100BE500B405004001E4900BDB931207BC743A1284
:0A0BF50007BCD203756204020A086F
:1003B200E9D2E7C933E833F892D5EDD2E7CD33EC91
:0703C20033FC5002B2D5220A
:1003C900EC30E7100FBF000C0EBE00080DBD000495
:1003D9000BEB6014A2D5EB13FCED92E7FD2274FF41
:1003E900FCFDFEFF22E480F8A2D574FF13FC7D809A
:0303F900E480EFAE
:1003FC00F920E72824F950037907E4F42402FB18C8
:10040C00DBFDE624FB5014E9600DE4F618E604F677
:0F041C00B40A08E4F6D9F57401F60A22C2D52213
:10042B00ED33EC3392D5FA602AB4FF33EDC2E77BA0
:10043B00FF60067A047950E4227A04795920D504B6
:10044B007A047954224E614E002B494E46002D49B9
:10045B004E4600E47A08F608DAFC7B00740722E8C3
:10046B00C0E0ECC0E0EDC0E0EEC0E0EFC0E0EA754C
:10047B00F010A4CAABF075F04DA42BFBE435F0FCE7
:10048B00EA2410FAEB34C5FBEC34D9FCEDC2E7FFE0
:10049B0075F056A4F42411C5F0F434C58FF0A42ADA
:1004AB00E5F03BE43CF620E71412055ED0E0FFD00C
:1004BB00E0FED0E0FDD0E0FC1202278014F4041221
:1004CB00055ED0E0FFD0E0FED0E0FDD0E0FC1201F5
:1004DB001ED0E0F8E6FAEDD2E7CD33EC332482FB05
:1004EB00E4C3CF33CFCE33CECD33CD33DBF37B076A
:1004FB0075F00A846004F6081B0AE5F0F6088FF025
:10050B00740AA4FFACF08EF0740AA42CFEACF0506D
:10051B00010C8DF0740AA42CFDE435F0F608DBDE3B
:03052B0074072230
:10052E003F8000004120000042C80000447A0000D5
:10053E00461C400047C35000497424004B18968057
:10054E004CBEBC205A0E1BCA6753C21C749DC5AE4E
:10055E00FB60065407601C232312058CEB54386095
:10056E000912057812058712011EECF8EDF9EEFA64
:10057E00EFCB22EB12058780F1543803241C900533
:10058E002EFE93FC0EEE93FD0EEE930ECE93FF22F7
:030000000211CE1C
:0C11CE00787FE4F6D8FD75817F021215D1
:10059E00E709F608DFFA8046E709F208DFFA803E3F
:1005AE0088828C83E709F0A3DFFA8032E309F6082C
:1005BE00DFFA8078E309F208DFFA807088828C8394
:1005CE00E309F0A3DFFA806489828A83E0A3F60848
:1005DE00DFFA805889828A83E0A3F208DFFA804C22
:1005EE0080D280FA80C680D4806980F280338010F9
:1005FE0080A680EA809A80A880DA80E280CA803362
:10060E0089828A83ECFAE493A3C8C582C8CCC583D9
:10061E00CCF0A3C8C582C8CCC583CCDFE9DEE780A9
:10062E000D89828A83E493A3F608DFF9ECFAA9F028
:10063E00EDFB2289828A83ECFAE0A3C8C582C8CC7E
:10064E00C583CCF0A3C8C582C8CCC583CCDFEADE97
:10065E00E880DB89828A83E493A3F208DFF980CCF9
:10066E0088F0EF60010E4E60C388F0ED2402B404F2
:10067E000050B9F582EB2402B4040050AF23234599
:06068E0082239005EE73CB
:10069400BB010689828A83E0225002E722BBFE0264
:0906A400E32289828A83E4932297
:1006AD00BB010CE58229F582E5833AF583E0225002
:1006BD0006E92582F8E622BBFE06E92582F8E2224C
:0D06CD00E58229F582E5833AF583E4932266
:1006DA00BB010689828A83F0225002F722BBFE01FF
:0206EA00F322F9
:1006EC00F8BB010DE58229F582E5833AF583E8F044
:1006FC00225006E92582C8F622BBFE05E92582C8F0
:02070C00F222D7
:0E070E00C3E49FFFE49EFEE49DFDE49CFC22FC
:0C071C00E6FC08E6FD08E6FE08E6FF2209
:0D072800E6FB08E6F908E6FA08E6CBF82241
:0C073500ECF608EDF608EEF608EFF622F0
:10074100D083D082E493F608740193F6087402937F
:09075100F608740393F6740473B6
:10075A00FAE6FB0808E6F925F0F618E6CA3AF622A0
:10076A00D083D082F8E4937012740193700DA3A31E
:10077A0093F8740193F5828883E473740293686032
:06078A00EFA3A3A380DF32
:1011DA000214BAE493A3F8E493A34003F68001F25D
:1011EA0008DFF48029E493A3F85407240CC8C33316
:1011FA00C4540F4420C8834004F456800146F6DFE5
:10120A00E4800B0102040810204080901329E47E38
:10121A00019360BCA3FF543F30E509541FFEE493D9
:10122A00A360010ECF54C025E060A840B8E493A3A0
:10123A00FAE493A3F8E493A3C8C582C8CAC583CACB
:10124A00F0A3C8C582C8CAC583CADFE9DEE780BE83
:01137C000070
:00000001FF
