:0317070025750045
:10131A004800080A0A0A0A0A0A0A0A4800000000DB
:10132A00000000000000480010000000000000005B
:0F133A0000033E0D0305044140A0000001361ED4
:1010FB00E53C60030211BE753C011212C38F3BE548
:10110B003B653AFF553BF537E53BF45FF547853BD0
:10111B003AE53724FB601D24FD602B146039240550
:10112B007044E5256403603E0525E52564037036B0
:10113B00F5258032E5256401702C0522E522640338
:10114B007024F5228020E525B4021B1536E536B454
:10115B00FF14753663800FE525B4020A0536E536B4
:10116B00B46403E4F536E52564017047E5226402B7
:10117B007041E537B40902D20AE547B40935D3E526
:10118B002794D0E5269407402AC20AE4781CF67807
:10119B001412073900000000780B12073900000009
:1011AB0000E47813F618F6780AF6781BF67818F63A
:0411BB00780FF62291
:100BF700E5396003020FDC7539017F41121564ACDA
:100C070007E412033FE4FBFA794C784212021F8F84
:100C1700448E438D428C41E4FFFE7D407C40AB44D3
:100C2700AA43A942A8411202BC60054003020D7FF6
:100C3700300903020D7FD20978457C007D007B00D7
:100C47007A00793E7E007F02120666781C06E5254B
:100C5700640360038525491214AB120373781BA63E
:100C670007C3E52B94C8E52A94004032D3E52B94BB
:100C7700D0E52A94075027AC2AAD2BE412033A7B20
:100C8700617A0B7936783D1201167BE47A38798ED2
:100C9700783F1200251203737812A6078004E478C0
:100CA70012F6752503781BE6781126F618E436F652
:100CB7007812E6781A26F618E436F67810E6FC0875
:100CC700E6FDE412033AC004C005C006C007781C5D
:100CD700E6FCE412033FA804A905AA06AB07D00760
:100CE700D006D005D00412021F780B12072D7819F1
:100CF700E6FC08E6FDE412033AC004C005C006C0DE
:100D070007781CE6FCE412033FA804A905AA06AB72
:100D170007D007D006D005D00412021F7814120797
:100D27002D780AE6FF781BE6FED39F4004AF0680C6
:100D370000780FA6077813E6FF18E6FED39F400456
:100D4700AF0680007818A607791BE7D3780A964084
:100D5700157912E7D3781396400C781CE6D39401E3
:100D670040047F0180027F00900015EFF0781BE6BA
:100D7700780AF67812E608F6E5251460661470031B
:100D8700020F60147003020F8A24036003020FDC52
:100D97007B007A00793E1213B690000D740BF09029
:100DA700000AF0E53E75F00A84900008F0E53E750C
:100DB700F00A84A3E5F0F0E53F75F00A8490000B94
:100DC700F0E53F75F00A84A3E5F0F0E54075F00A19
:100DD7008490000EF0E54075F00A84A3E5F0F0E496
:100DE700F52222E5226003020E70900008740CF0D1
:100DF700A3740AF0781CE690000C6057740BF07827
:100E07000FE6FF75F00A8490000AF0EF75F00A8488
:100E1700A3E5F0F0780B120714120373EF75F00ACD
:100E27008490000DF0EF75F00A84A3E5F0F0E4FF7D
:100E3700FE7D207C41780B120720120116120373E6
:100E4700EF75F00A8490000FE5F0F090000674014A
:100E5700F08016740AF090000AF0A3F090000DF0ED
:100E6700A3F0A3F0E4900006F0E52264016003021A
:100E77000EF8900008740DF0A3740AF0781CE69041
:100E8700000C6057740BF07818E6FF75F00A849031
:100E9700000AF0EF75F00A84A3E5F0F07814120762
:100EA70014120373EF75F00A8490000DF0EF75F0DC
:100EB7000A84A3E5F0F0E4FFFE7D207C417814125C
:100EC7000720120116120373EF75F00A8490000FC2
:100ED700E5F0F09000067401F08016740AF09000B7
:100EE7000AF0A3F090000DF0A3F0A3F0E490000641
:100EF700F0E52264026003020FDC900008740EF034
:100F0700781CE6FF75F00A84A3F0EF75F00A84A356
:100F1700E5F0F0E4900006F0E6602F90000D740B0A
:100F2700F0E54575F00A8490000BF0E54575F00A89
:100F370084A3E5F0F0E54675F00A8490000EF0E52D
:100F47004675F00A84A3E5F0F02290000B740AF0CE
:100F5700A3F0A3F0A3F0A3F022900008740FF0A36E
:100F6700740AF0A3F0A3F0A3F0A3F0E53675F00A36
:100F770084A3F0E53675F00A84A3E5F0F0E4900069
:100F870006F0229000087410F090000A740AF0909E
:100F97000009F090000D04F0781BE6FF75F00A8455
:100FA70090000BF0EF75F00A84A3E5F0F07812E6F5
:100FB7006015E6FF75F00A8490000EF0EF75F00AF1
:100FC70084A3E5F0F0800890000E7411F0A3F020E0
:060FD700090385492522F3
:10136E00E4FFEFB525047E0180027E0074102FF598
:10137E0082E43400F583EEF00FBF02E6E525B403F8
:10138E00047F0180027F00900012EFF0A20BE43385
:10139E00A3F07812E67009781CE660047F018002E3
:0713AE007F00900014EFF036
:0113B5002215
:10166600E53870127538017BFF7A177907852A4DA0
:07167600852B4E1207EA224A
:1016BE00538E7F5389F0438905E4F58AF58CC28DEC
:0316CE00D28C2299
:10169400538EBF53890F758B18758DFCC28FD28EF4
:0516A400D2ABD2AF2221
:03001B00020FDDF4
:100FDD00C0E0C0F0C083C082C0D075D000C000C0DA
:100FED0001C002C003C004C005C006C007053CE532
:100FFD003CB40A03753C000539E539B4FA0375397B
:10100D0000053DE53DB40803753D007408253DF52B
:10101D0082E43400F583E0FD7C007400253DF5820B
:10102D00E43400F583E0FB7A00AF3D1214717410C7
:10103D00253DF582E43400F583E0FD7C00AF3D12E3
:10104D0014360538E538B4FA037538000524E5245F
:10105D0070020523FFAE23BE031DBFE81A752300E2
:10106D00752400C28CAF8CEFAD8AF52AEDF52B758A
:10107D008A00758C00D28C3009190529E52970027A
:10108D000528FFAE28BE0B0BBFB8087528007529C3
:10109D0000C209300A190527E52770020526FFAEA3
:1010AD0026BE0911BFC40E7526097527C4800675A5
:1010BD002600752700781BE6D3953640110548E5C7
:1010CD0048B4640F754800A20BB3920B80057548A8
:1010DD0000C20BD007D006D005D004D003D002D06B
:0E10ED0001D000D0D0D082D083D0F0D0E0323D
:1014E0001215E11216BE12169412167D7F411215C6
:1014F000647B007A00793E12124B7B007A00793EC1
:101500001213B61214AB1210FB120BF712136E80EB
:01151000F5E5
:1016D100E4FEC297EF1392A3EFC313FFD2970EBE9E
:0216E10008F00F
:0116E30022E4
:0615FE0025F0FDEC3EFCAF
:10160400C29300C29700D293001216D1AF051216EE
:04161400D1C293228A
:0813FA00C4540F75F00AA4FCB5
:10140200E4FDC29300C29700D293001216D1E4FF0A
:10141200C297EDC313FD30A303430580D2970FBFDC
:1014220008EEC29300C29700D29700C2A300D2A3D3
:0314320000AF0503
:011435002294
:10124B00E4FDFC7F8E12160412068C75F00A847571
:10125B00F010A4FFAEF012068C75F00A84EF7F84B9
:10126B001215FE9000011206A575F00A8475F01098
:10127B00A4FFAEF09000011206A575F00A847C0065
:10128B00EF7F821215FE9000021206A575F00A84FC
:10129B0075F010A4FFAEF09000021206A575F00ACF
:1012AB00847C00EF25F0FDEC3EFC7F801216047D64
:0812BB00807C007F8E02160406
:1013B6007F85121402EF7F851213FAEF540F2C1259
:1013C60006D27F83121402EF7F831213FAEF540FB3
:1013D6002C9000011206E47F81121402EFC4540F10
:1013E60075F00AA4FC7F81121402EF540F2C9000B2
:0413F600020206E405
:04161800D2A07F0AD3
:10161C00000000000000000000000000000000AE10
:06162C00071FEE70EB2227
:0F16E400D2A1121618C2A17F0A12161CC2A02290
:0C16F300C2A1121618D2A17F0A02161C18
:02151100AD0724
:10151300E4FCC2A07F0A12161CED30E704D2A180BE
:1015230002C2A17F0A12161CD2A0ED25E0FD7F0A9C
:0915330012161C0CBC08DBC2A05E
:01153C00228C
:1015A700E4FC121618ED25E0FD30A103430501C246
:0C15B700A07F0A12161C0CBC08E8AF054F
:0115C3002205
:0B15C4001215111215CFAF0312151104
:1015CF00121618A2A1E433FDC2A07F0A12161CAF97
:0115DF000506
:0115E00022E8
:10000300C2A0EF24FF92A17F0A12161C121618C277
:08001300A0D2A17F0A02161C15
:02156400AB07D3
:101566001216E47F901215C41216E47F911215111B
:101576001215CF1215A7AD077F011200031216F33D
:02158600AF05AF
:011588002240
:1016A900AB071216E47F901215111215CF7F411264
:0516B90015C40216F348
:1015E1007580FFE5A0541F4480F5A053A01FE4F5CA
:0D15F10080E5A0541F44A0F5A053A01F22C8
:1012C300E4FFC2C4D2C2D2B5D2B420B3027F042099
:1012D300B2027F0520B1027F0620B0027F07D2C48D
:1012E300C2C2D2B5D2B420B3027F0820B2027F09B2
:1012F30020B1027F0A20B0027F0BD2C4D2C2C2B592
:10130300D2B420B3027F0C20B2027F0D20B1027F42
:061313000E20B0027F0F66
:0113190022B1
:061349000108000109FF8C
:10143600ED4C600F7401A807088002C333D8FC4244
:1014460008800E7401A807088002C333D8FCF45242
:1014560008E50865096013E508F4F580E5A0541F62
:0A1466004480F5A053A01F8508097B
:011470002259
:041632007F057E00B2
:10163600EF1FAA0670011E4A600BE4FDEDC3940C71
:0516460050EE0D80F7DD
:01164B00227C
:02158900A907B0
:10158B00E4FBC294E9139294121632D294E9C3137A
:0C159B00F90BBB08ED7F057E0002163640
:10164C00E4FBC294ECC313FCD294309403430480A7
:09165C001216320BBB08EBAF04BF
:011665002262
:10153D00C20CD2947F0C7E00121636C2947F507E60
:10154D0000121636D2947F0A7E00121636A294929D
:06155D000C121632A20C74
:011563002265
:1014AB0012153D7FCC1215897F4412158912153DFB
:1014BB007FCC1215897FBE12158912164CA9071203
:1014CB00164CEFAD01FCE412033AE4FBFA79807899
:0414DB004112021F99
:0114DF0022EA
:10134F00087801020408102040801266C0F9A4B08A
:0E135F00999282F88090FFBFC6898E8C868896
:101471007580FFE5A0541F44E0F5A053A01F7478C8
:101481002FF8E6F580E5A0541F44C0F5A053A01F36
:1014910074662DF8E6F580EB4A600353807FE5A082
:0A14A100541F44E0F5A053A01F22E1
:10167D00759850438E01438E0475D7C775D6FE43BA
:07168D008E10D2ACD2AF2297
:0816FF008F993099FDC2992278
:10001E000203DFE86480F8E933E83360110460F02E
:10002E00ED33EC337009E8FCE9FDEAFEEBFF220448
:10003E0060DED3EB9FEA9EE99DE8C2E78CF0C2F743
:10004E0095F0400CE8CCF8E9CDF9EACEFAEBCFFB0F
:10005E001203AA85D0F05804700320D5B3E80470BB
:10006E00075002B2D50203E992D5EC0460F7E4CC56
:10007E00C0E0C398F8603B94186008400DD0E0FBD8
:10008E000203C1E4FBFAC9FC8028E830E406E4C9A7
:10009E00FBE4CAFCE830E305E4C9CACBFCE854072C
:1000AE006010F8C3E913F9EA13FAEB13FBEC13FC37
:1000BE00D8F130F52FC3E49CFCEF9BFFEE9AFEEDDA
:1000CE0099FDD0E0FBEF4E4D4C701222DB03020384
:1000DE00E6EC2CFCEF33FFEE33FEED33FDED30E7B7
:1000EE00EB0203C1EF2BFFEE3AFEED39FDD0E0FB44
:1000FE0050130BBB00030203E9ED13FDEE13FEEFED
:08010E0013FFEC13FC0203C116
:10011600EC4D6011E8497017ED33EC3304600DE4E3
:10012600FCFFFEFD22E933E8330470F80203DF1218
:1001360003AA58046009E4CC248150062850090219
:1001460003E92840030203E6C0E0EB4A7044B980A5
:1001560006D0E0FB0203D5EF4E701CBD8008EBFF16
:10016600EAFEE9FD80EBE98DF0A4FEE5F00201FF71
:10017600E9CDF9EAFEEBFFEF89F0A4FCE5F0CE89C4
:10018600F0A42EFFE435F0CD89F0A42DFEE435F081
:100196008067EF4E7005BD80D780C3EF8BF0A4ACAF
:1001A600F0EE8BF0A42CFCE435F0F8EF8AF0A42CEA
:1001B600E5F038FCE433CB8DF0A42CFCE5F03BF8FD
:1001C600EE8AF0A42CFCE5F038F8E433CF89F0A4ED
:1001D6002CFCE5F038CF3400CE89F0A42FFFE5F0F3
:1001E6003EFEE433C98DF0A42EFEE5F039CD8AF04B
:1001F600A42FFFE5F03EFEE43DFD33D0E0FB5007C3
:100206000BBB000F0203E9EC2CFCEF33FFEE33FED1
:06021600ED33FD0203C1FF
:10021C000203E9EC5D046005E8590470030203DF96
:10022C001203AA580460F6EC4860F2EC7004FDFE70
:10023C00FF22C860DB2481C85009C39860025006B5
:10024C000203E69850CAF582E9294B4A7005AB8245
:10025C000203D575F0007C1A7880C3EF9BEE9AED03
:10026C0099400DC3EF9BFFEE9AFEED99FDE842F02D
:10027C00DC23ACF0D0E0FFD0E0FED0E0FDAB822080
:10028C00E7101BEB60BAEC2CFCEF33FFEE33FEED0A
:10029C0033FD0203C1E803F830E705C0F075F00048
:1002AC00EF2FFFEE33FEED33FD40B830E7C280AAEE
:1002BC0074F8CC6480CCC86480C8F58204604FC3E9
:1002CC00EB9FF5F0EA9E42F0E99D42F0E89C45F088
:1002DC00603C501DE5825FFFE582D313CB5BCBF412
:1002EC002B5582FB50280ABA002409B9002008803B
:1002FC001DE5825BFBE582D313CF5FCFF4C3132FD5
:10030C005582FF50090EBE00050DBD00010CC3EB5C
:10031C009FF5F0EA9E42F0E99D42F0E89C45F060C2
:09032C0007CC4820E701B3EC22E4
:1003350075F020800E75F010800575F0087D007E43
:10034500007F003392D530D503120706EC334010F9
:10035500EF33FFEE33FEED33FDEC33FCD5F0ED224C
:0E036500E5F0247EA2D513CC92E7CDCEFF2288
:10037300EDD2E7CD33EC3392D524814006E4FFFE82
:10038300FDFC22FCE4CFCECDCC24E0501174FF80E1
:10039300EDC3CC13CCCD13CDCE13CECF13CF04707E
:0703A300F030D5DE02070671
:10078800E561244DF8E6056122784A300702784D84
:10079800E475F00112075202068C2000EB7F2ED27E
:1007A800008018EF540F2490D43440D4FF30040B49
:1007B800EF24BFB41A0050032461FFE562600215FC
:1007C800620565E5657002056430070D784AE475D1
:1007D800F001120752EF0206D20216FF7403D20785
:1007E8008003E4C207F5618B4A8A4B894CE4F562C1
:1007F800F564F565E56260077F201207C380F5752B
:1008080063FFC201C200C202C203C205C206C20817
:10081800120791FF700D3007057F001207D4AF65EE
:10082800AE6422B4255FC2D5C204120791FF24D05A
:10083800B40A00501A75F00A786230D50508B6FF78
:100848000106C6A426F620D5047002D20380D92456
:10085800CFB41A00EF5004C2E5D204020AC1D20193
:1008680080C6D20080C0D20280BCD2D580BAD20560
:1008780080B47F201207C32002077401B5620040CC
:10088800F1120788FF1207C30207FCD208D20680BC
:1008980095120788FB120788FA120788F94A4B70E5
:1008A8000679B87A0B7BFF20022EE562602A7E006B
:1008B8008E827583001206A560060EEE656370F0E1
:1008C800C2D5EBC0E0EAC0E0E9C0E0EE120B21D0EF
:1008D800E0F9D0E0FAD0E0FB12068CFF60AAEBC08A
:1008E800E0EAC0E0E9C0E01207C3D0E02401F9D093
:1008F800E03400FAD0E0FBE5630460DCD563D9801E
:1009080087D20280A2120B0460F7E563700104121B
:1009180003F4A963600DE563600914F563120BAB7A
:10092800EF60F3EA30E702F404C3995077EAF4255C
:10093800630430E701E404F563800D120B0460C121
:10094800EA056325631203F4EA7860F630E701E408
:10095800256304D5630420050114120B21E4C0E0CB
:10096800120BAB7860E6601320E70714F61207ABAA
:10097800802204F6D0E014C0E07F001207ABE563E4
:1009880060071207A21563800B3005031207A2D077
:10099800E00207FCD0E00480C5120B0460A0E56308
:1009A800041203F47860EAF6E563200502600104A6
:0509B8002404120B21D4
:1009BD0074FF04C0E0120BAB1207ABE56320050218
:1009CD0060031207A2D0E0B563E87F451207B57842
:1009DD0060E67F2B30E7047F2DF404C0E01207C3DF
:1009ED00D0E075F00A84C0F01207ACD0E01207AC6D
:1009FD000207FC791080027908C206C2088008D26D
:100A0D00D5790A8004790AC2D5E563047002F563CD
:100A1D00E4FAFDFEFF120788FC7B08200113120784
:100A2D0088FD7B1030000A120788FE120788FF7BB5
:100A3D0020EC3382D592D55013C3E43000069FFFCE
:100A4D00E49EFEE42001039DFDE49CFCE4CBF8C292
:100A5D0001EC700CCFCECDCCE824F8F870F38017F4
:100A6D00C3EF33FFEE33FEED33FDEC33FCEB33FB25
:100A7D00994002FB0FD8E9EB300105F8D0E0C448EE
:100A8D00B201C0E00AEC4D4E4F78207B0070C2EAF7
:100A9D00B5630040BCC0E0120B23D0F0D0E02001C4
:100AAD0004C4C0E0C4B201C0F01207ACD0F0D5F060
:100ABD00EB0207FC1207620899530A0058086A4CAA
:100ACD000866420A044F0A0C440A0C49087F430A7F
:100ADD00125509434609A145090D470BD850086E1B
:100AED002D08722E08952B0876230893200BC12A0A
:100AFD00082E480000088DE563B4FF0375630612E8
:100B0D000788FC120788FD120788FE120788FF78F8
:100B1D0059020423790AA2D5200314300509B9100E
:100B2D00020404B9080104A2D520060250010420D4
:100B3D0002689202B562005034C0E07F2030031984
:100B4D007F30A20272067205500F120B7AC202C2DA
:100B5D0006C205C2087F30800F300503E9C0E012E0
:100B6D0007C3300503D0E0F9D0E0B562CC300517EE
:100B7D007F30B9100C1207C37F583004077F78807F
:100B8D0003B908031207C33002057F2D0207C37F87
:100B9D00202008F87F2B2006F322920280CF7F00C1
:100BAD00B4070050052459F8E6FF22286E756C6CC9
:100BBD002900D2011207883001F8C201786230D5C0
:100BCD000108F602082E2D504349581207882403B8
:100BDD00B405004001E4900BD3931207B4743A129C
:0A0BED0007B4D203756204020A0087
:1003AA00E9D2E7C933E833F892D5EDD2E7CD33EC99
:0703BA0033FC5002B2D52212
:1003C100EC30E7100FBF000C0EBE00080DBD00049D
:1003D1000BEB6014A2D5EB13FCED92E7FD2274FF49
:1003E100FCFDFEFF22E480F8A2D574FF13FC7D80A2
:0303F100E480EFB6
:1003F400F920E72824F950037907E4F42402FB18D0
:10040400DBFDE624FB5014E9600DE4F618E604F67F
:0F041400B40A08E4F6D9F57401F60A22C2D5221B
:10042300ED33EC3392D5FA602AB4FF33EDC2E77BA8
:10043300FF60067A047948E4227A04795120D504CE
:100443007A04794C224E614E002B494E46002D49C9
:100453004E4600E47A08F608DAFC7B00740722E8CB
:10046300C0E0ECC0E0EDC0E0EEC0E0EFC0E0EA7554
:10047300F010A4CAABF075F04DA42BFBE435F0FCEF
:10048300EA2410FAEB34C5FBEC34D9FCEDC2E7FFE8
:1004930075F056A4F42411C5F0F434C58FF0A42AE2
:1004A300E5F03BE43CF620E714120556D0E0FFD01C
:1004B300E0FED0E0FDD0E0FC12021F8014F4041231
:1004C3000556D0E0FFD0E0FED0E0FDD0E0FC120105
:1004D30016D0E0F8E6FAEDD2E7CD33EC332482FB15
:1004E300E4C3CF33CFCE33CECD33CD33DBF37B0772
:1004F30075F00A846004F6081B0AE5F0F6088FF02D
:10050300740AA4FFACF08EF0740AA42CFEACF05075
:10051300010C8DF0740AA42CFDE435F0F608DBDE43
:0305230074072238
:100526003F8000004120000042C80000447A0000DD
:10053600461C400047C35000497424004B1896805F
:100546004CBEBC205A0E1BCA6753C21C749DC5AE56
:10055600FB60065407601C2323120584EB543860A5
:100566000912057012057F120116ECF8EDF9EEFA84
:10057600EFCB22EB12057F80F1543803241C900543
:1005860026FE93FC0EEE93FD0EEE930ECE93FF2207
:030000000211BF2B
:0C11BF00787FE4F6D8FD75817F021206EF
:10059600E709F608DFFA8046E709F208DFFA803E47
:1005A60088828C83E709F0A3DFFA8032E309F60834
:1005B600DFFA8078E309F208DFFA807088828C839C
:1005C600E309F0A3DFFA806489828A83E0A3F60850
:1005D600DFFA805889828A83E0A3F208DFFA804C2A
:1005E60080D280FA80C680D4806980F28033801001
:1005F60080A680EA809A80A880DA80E280CA80336A
:1006060089828A83ECFAE493A3C8C582C8CCC583E1
:10061600CCF0A3C8C582C8CCC583CCDFE9DEE780B1
:100626000D89828A83E493A3F608DFF9ECFAA9F030
:10063600EDFB2289828A83ECFAE0A3C8C582C8CC86
:10064600C583CCF0A3C8C582C8CCC583CCDFEADE9F
:10065600E880DB89828A83E493A3F208DFF980CC01
:1006660088F0EF60010E4E60C388F0ED2402B404FA
:100676000050B9F582EB2402B4040050AF232345A1
:0606860082239005E673DB
:10068C00BB010689828A83E0225002E722BBFE026C
:09069C00E32289828A83E493229F
:1006A500BB010CE58229F582E5833AF583E022500A
:1006B50006E92582F8E622BBFE06E92582F8E22254
:0D06C500E58229F582E5833AF583E493226E
:1006D200BB010689828A83F0225002F722BBFE0107
:0206E200F32201
:1006E400F8BB010DE58229F582E5833AF583E8F04C
:1006F400225006E92582C8F622BBFE05E92582C8F8
:02070400F222DF
:0E070600C3E49FFFE49EFEE49DFDE49CFC2204
:0C071400E6FC08E6FD08E6FE08E6FF2211
:0D072000E6FB08E6F908E6FA08E6CBF82249
:0C072D00ECF608EDF608EEF608EFF622F8
:10073900D083D082E493F608740193F60874029387
:09074900F608740393F6740473BE
:10075200FAE6FB0808E6F925F0F618E6CA3AF622A8
:10076200D083D082F8E4937012740193700DA3A326
:1007720093F8740193F5828883E47374029368603A
:06078200EFA3A3A380DF3A
:1011CB000214E0E493A3F8E493A34003F68001F246
:1011DB0008DFF48029E493A3F85407240CC8C33325
:1011EB00C4540F4420C8834004F456800146F6DFF4
:1011FB00E4800B010204081020408090131AE47E57
:10120B00019360BCA3FF543F30E509541FFEE493E8
:10121B00A360010ECF54C025E060A840B8E493A3AF
:10122B00FAE493A3F8E493A3C8C582C8CAC583CADA
:10123B00F0A3C8C582C8CAC583CADFE9DEE780BE92
:01136D00007F
:00000001FF
