:100A9900880B0A0A0A0A0A0A0A0A880000000000E2
:100AA900000000008308173B3702140000C104C18D
:100AB90006C100C102010F0001081EC10120424701
:100AC900FF090A0000000A00000000FF05160000E7
:100AD90000C800000000FF0D0F0000000100000029
:100AE90000FF1109000000C800000000FF0CA80069
:100AF9000000C800000000FF0814000000C8000042
:020B09000000EA
:10090A007846E6640370030209F31209F4788DEF5E
:10091A00F618E66FFE5FFD788AF6EFF45E7839F630
:10092A00788DE618F6ED24FB602A24FD60431460F6
:10093A0054240570627846E62401FFE433FE7C0005
:10094A007D0312044BAF057846EFF66401704878D0
:10095A0089F680437846E66401703C7889E624018A
:10096A00FFE433FE7C007D0312044B7889A60580E0
:10097A00267846E6B402200508E508D394634017B2
:10098A00E4F50880127846E6B4020C1508E508D3A7
:10099A0094C840037508637846E66401704B788909
:1009AA00E66402704408E6B40902D2057839E664BE
:1009BA00097036C3E50E94D0E50D94074024E4F59A
:1009CA0013F50BF50CF519F51AF512F509F50AF5F3
:1009DA0017F518FE7F02FDFB7A0079141204EAE487
:0A09EA00F50FC205E4F50DF50E222D
:100516007846E61460501470030206A214700302B3
:1005260006C1240360030207117810740BF2780DDC
:10053600F27808E2FF75F00A84780BF2EF75F00A9C
:100546008408E5F0F27809E2FF75F00A84780EF285
:10055600EF75F00A8408E5F0F2780AE2FF75F00A12
:100566008478110206FF7889E6FF240C780BF2EFF7
:1005760014606B1470030206522402600302071112
:10058600780C740AF2E50FD394004050E51375F029
:100596000A8475F00A8408E5F0F2E51375F00A841A
:1005A60008E5F0F208740BF2AE0BAF0C7C007D642C
:1005B60012044B7C007D0A12044B7810EDF2AE0B50
:1005C600AF0C7C007D0A12044B7C007D0A12044BA2
:1005D600ED242E7811F2AE0BAF0C805C8066780CA1
:1005E600740AF2E50FD39400405AE51275F00A84B6
:1005F60075F00A8408E5F0F2E51275F00A8408E55C
:10060600F0F208740BF2AE09AF0A7C007D641204A6
:100616004B7C007D0A12044B7810EDF2AE09AF0A4E
:100626007C007D0A12044B7C007D0A12044BED24EB
:100636002E7811F2AE09AF0A7C007D0A12044B78BF
:1006460012EDF222780D740AF2088046E50F75F075
:100656000A8475F00A84780CE5F0F2E50F75F00A65
:100666008408E5F0F2E50FD394004022E51475F016
:100676000A8408F2E51475F00A8408E5F0F20874B5
:100686000BF2E51575F00A8408F2E515806D780E13
:10069600740AF208F208F208F208F222780B740FD4
:1006A600F27810740AF218F218F218F218F2E50845
:1006B60075F00A847811F2E5088040780B7410F220
:1006C600780D740AF218F27841E6FF75F00A84751F
:1006D600F00A84780EE5F0F2EF75F00A8408E5F08A
:1006E600F208740BF27840E6F46019E6FF75F00A3A
:1006F6008475F00A847811E5F0F2EF75F00A840843
:0C070600E5F0F22278127411F218F222D1
:100D0F00E4FF7846E6B507047E0180027E0074009A
:100D1F002FF8EEF20FBF02EA7846E6B403047F0124
:100D2F0080027F007802EFF2A203E43308F27840EA
:100D3F00E6B4FF047F0180027F007804EFF2A20186
:0D0D4F00E43308F27BFE7A007900020BB855
:091109007BFE7A007908020E2D2C
:100CA8002002637F43120F73EF75F064A4FFAEF068
:100CB8007C007D3312044B7842A60608A6077F41C4
:100CC800120F73EF75F064A4FFAEF07C007D331251
:100CD800044B7844A60608A607D37843E694FA1886
:100CE800E694004004D2048002C2042004143006B2
:100CF80011D200D202E4783CF608F67846E6F516FA
:070D08007603A2049206220B
:10081400200003020909C200120DF212025A7841A3
:10082400A607783EE6FE08E6FFC394C8EE940040AF
:1008340009D3EF94D0EE94074007784076FF02087E
:10084400DF050F78147C007D007BFE7A0079087E3A
:10085400007F021203AB7841E6FFD3951340028078
:1008640002AF138F137841E6251AF51AE43519F50A
:1008740019FEAF1A7C007D0A120439AD0F12044B25
:100884008E0B8F0C783FE62438FD18E634FFFCE429
:100894001202217B617A0B7936783D120116E4FB52
:1008A400FA7920784112002512025A7840EFF6D3E3
:1008B40095124004E6FF8002AF128F127840E625BD
:1008C40018F518E43517F517FEAF187C007D0A12E9
:1008D4000439AD0F12044B8E098F0AE50FC394023D
:1008E40040187841E6D39511401018E6FFD39510CF
:1008F4004008EFF46004D2018002C2017841E6F5B9
:060904001118E6F51022B7
:1010A900538E7F5389F0438905E4F58AF58CC28D07
:0310B900D28C22B4
:10108000538EBF53890F758B18758DFCC28FD28E0E
:05109000D2ABD2AF223B
:03001B00020712C7
:10071200C0E0C0F0C083C082C0D075D000C000C0AD
:1007220001C002C003C004C005C006C007788F1212
:1007320004BFEF2401FFE43EFEE43DFDE43CFC780F
:100742008F1204D8300517050EE50E7002050DC391
:1007520094D0E50D94074006750D07750ED0788E7E
:1007620006E65407F6E6FF240BF8E2FED3941440A3
:1007720008EE24D2FDD207800B788EE6FF240BF818
:10078200E2FDC207120DA97841E6D3950840120591
:100792001BE51B9464400F751B00A203B3920380F8
:1007A20005751B00C203783A0806E6187001068632
:1007B20006C394E8EE9403401C783A76000876006B
:1007C200C28CAF8CEFAD8A783EF6ED08F6758C00E0
:1007D200758A00D28C30021F783D06E61870010639
:1007E200C3783DE694B818E6940B400BC20276003B
:1007F2000876007846A616D007D006D005D004D0D9
:1008020003D002D001D000D0D0D082D083D0F0D09B
:02081200E032D2
:05111200788B76062237
:0B0C3600E4F534E534C3788B9650667B
:100C4100788F1204BF8F388E378D368C35E5347529
:100C5100F00BA4244EF81204CBC3E5389BFFE53713
:100C61009AFEE53699FDE53598FCE53475F00BA45F
:100C7100244AF81204CBD31204AE5026AF38AE3753
:100C8100AD36AC35E53475F00BA4244EF81204D81A
:100C9100E53475F00BA42447F808E6FA08E6F912E2
:020CA10004E469
:040CA3000534809202
:010CA700222A
:100FDA00120F997BFE7A007908120D5C120DF2123B
:0D0FEA0010A9121080121112120C3680FB9B
:100F99007580FFE5A0541F44E0F5A0E5A0541FF5B6
:100FA900A0E4F580E5A0541F44A0F5A0E5A0541FD6
:020FB900F5A0A1
:010FBB002213
:1009F400E4FF20B003020A98C2C4D2C2D2B5D2B472
:100A040020B0027F0720B1027F0620B2027F0520BA
:100A1400B3027F04D2C4D2C2D2B5D2B430B075D23C
:100A2400C4C2C2D2B5D2B420B0027F0B20B1027FBF
:100A34000A20B2027F0920B3027F08D2C4D2C2D2F4
:100A4400B5D2B430B04ED2C4D2C2C2B5D2B420B042
:100A5400027F0F20B1027F0E20B2027F0D20B3026D
:100A64007F0CD2C4D2C2D2B5D2B430B027D2C4D251
:100A7400C2D2B5C2B420B0027F1320B1027F1220CB
:100A8400B2027F1120B3027F10D2C4D2C2D2B5D237
:040A9400B443B0EFC8
:010A9800223B
:100B0B001222C0F9A4B0999282F88090FFBFC689D7
:040B1B008E8C8688AE
:100DA9007580FFE5A0541F44E0F5A0E5A0541FFE9F
:100DB900F5A0A8077401088002C333D8FCF580E5C3
:100DC900A0541F44C0F5A0E5A0541FF5A074222D1E
:100DD900F8E6F58030070353807FE5A0541F44E00F
:080DE900F5A0E5A0541FF5A0E0
:010DF10022DF
:0C0B1F000193000195FF0194000196FF76
:100BB800E47893F69000011203EA25E0FF1203D1CE
:100BC8004FFF9000021203EA25E025E04FFF900056
:100BD800031203EA33333354F84FFF90000412032F
:100BE800EAC454F04FFF9000051203EAC43354E0FE
:100BF8004FFF9000061203EAC4333354C04FFF90EE
:100C080000071203EAC433333354804F7893F678DD
:100C1800956660197893E6FFF4F580E5A0541F44C3
:0D0C280080F5A0E5A0541FF5A07895A60763
:010C3500229C
:061014008B1C8A1D891EE1
:10101A007580FFE5A0541F4480F5A0E5A0541FF594
:05102A00A0E47895F63A
:01102F00229E
:100E99007894E63009054410F6800354EFF6799604
:100EA900E77894666016E6FFF580E5A0541F44A034
:0C0EB900F5A0E5A0541FF5A07896A60750
:010EC500220A
:100EC6007894E6300A054420F6800354DFF67996D6
:100ED600E77894666016E6FFF580E5A0541F44A007
:0C0EE600F5A0E5A0541FF5A07896A60723
:010EF20022DD
:100EF3007894E6300B054440F6800354BFF67996A8
:100F0300E77894666016E6FFF580E5A0541F44A0D9
:0C0F1300F5A0E5A0541FF5A07896A607F5
:010F1F0022AF
:1010BC00E4FEC297EF1392A3EFC313FFD2970EBEB9
:0210CC0008F02A
:0110CE0022FF
:10109500C29300C29700D293001210BCAF05121084
:0410A500BCC2932214
:100E6500E4FDC29300C29700D293001210BCE4FFC8
:100E7500C297EDC313FD30A303430580D2970FBF7F
:100E850008EEC29300C29700D29700C2A300D2A376
:030E950000AF05A6
:010E98002237
:060D5C008B348A35893654
:100D6200E4FD7F8E1210957D807F80121095E4FC49
:100D7200EC25E0FFC374849FFFAB34AA35A9368CFF
:100D8200827583001203EAFE75F00A84C454F0FDF2
:100D9200EE75F00A84ED25F0FD1210950CBC03D01F
:070DA2007D807F8E02109599
:060E2D008B348A35893682
:100E3300C2AFE4FCEC25E0FFC374859FFF120E658F
:100E4300EFC4540F75F00AA4FEEF540F2EAB34AA6F
:100E530035A9368C827583001204170CBC03D5D2D6
:010E6300AFDF
:010E6400226B
:0410F100D2A07F0505
:0810F50000AE071FEE70F922A6
:0F10E200D2A11210F1C2A17F051210F5C2A022F7
:0C10FD00C2A11210F1D2A17F050210F573
:020F2000AD071B
:100F2200E4FCC2A07F051210F5ED30E704D2A180E7
:100F320002C2A17F051210F5D2A0ED25E0FD7F05CA
:090F42001210F50CBC08DBC2A082
:010F4B002283
:100FF700E4FC1210F1ED25E0FD30A103430501C229
:0C100700A07F051210F50CBC08E8AF0536
:0110130022BA
:0A103000AB071210E27F90120F20B0
:10103A001210F1A2A1E433FDC2A07F051210F5AF90
:01104A0005A0
:01104B002282
:10000300C2A0EF24FF92A17F051210F51210F1C2D6
:08001300A0D2A17F050210F547
:100F7300121030AF03120F2012103A1210E27F91B9
:100F8300120F2012103A120FF7AD077F0112000360
:050F93001210FDAF0586
:010F98002236
:1010CF001210307F40120F2012103AAF03120F2070
:0310DF0002103AC2
:04104C007F057E009E
:10105000EF1FAA0670011E4A600BE4FDEDC3940C5D
:0510600050EE0D80F7C9
:011065002268
:020FBC00A90783
:100FBE00E4FBC294E913929412104CD294E9C31339
:0C0FCE00F90BBB08ED7F057E00021050FF
:10106600E4FBC294ECC313FCD29430940343048093
:0910760012104C0BBB08EBAF0497
:01107F00224E
:100F4C00C208D2947F0C7E00121050C2947F507E47
:100F5C0000121050D2947F0A7E00121050A294926C
:060F6C000812104CA2085F
:010F7200225C
:100DF200120F4C7FCC120FBC7F44120FBC7FC87EF7
:100E020000121050120F4C7FCC120FBC7FBE120F7B
:100E1200BC121066A907121066EFAD01FCEC1202BB
:0B0E220021E4FBFA7980783D02011604
:10001E000202C6E86480F8E933E83360110460F048
:10002E00ED33EC337009E8FCE9FDEAFEEBFF220448
:10003E0060DED3EB9FEA9EE99DE8C2E78CF0C2F743
:10004E0095F0400CE8CCF8E9CDF9EACEFAEBCFFB0F
:10005E0012029185D0F05804700320D5B3E80470D5
:10006E00075002B2D50202D092D5EC0460F7E4CC70
:10007E00C0E0C398F8603B94186008400DD0E0FBD8
:10008E000202A8E4FBFAC9FC8028E830E406E4C9C1
:10009E00FBE4CAFCE830E305E4C9CACBFCE854072C
:1000AE006010F8C3E913F9EA13FAEB13FBEC13FC37
:1000BE00D8F130F52FC3E49CFCEF9BFFEE9AFEEDDA
:1000CE0099FDD0E0FBEF4E4D4C701222DB03020285
:1000DE00CDEC2CFCEF33FFEE33FEED33FDED30E7D0
:1000EE00EB0202A8EF2BFFEE3AFEED39FDD0E0FB5E
:1000FE0050130BBB00030202D0ED13FDEE13FEEF07
:08010E0013FFEC13FC0202A830
:10011600EC4D6011E8497017ED33EC3304600DE4E3
:10012600FCFFFEFD22E933E8330470F80202C61232
:10013600029158046009E4CC248150062850090233
:1001460002D02840030202CDC0E0EB4A7044B980D9
:1001560006D0E0FB0202BCEF4E701CBD8008EBFF30
:10016600EAFEE9FD80EBE98DF0A4FEE5F00201FF71
:10017600E9CDF9EAFEEBFFEF89F0A4FCE5F0CE89C4
:10018600F0A42EFFE435F0CD89F0A42DFEE435F081
:100196008067EF4E7005BD80D780C3EF8BF0A4ACAF
:1001A600F0EE8BF0A42CFCE435F0F8EF8AF0A42CEA
:1001B600E5F038FCE433CB8DF0A42CFCE5F03BF8FD
:1001C600EE8AF0A42CFCE5F038F8E433CF89F0A4ED
:1001D6002CFCE5F038CF3400CE89F0A42FFFE5F0F3
:1001E6003EFEE433C98DF0A42EFEE5F039CD8AF04B
:1001F600A42FFFE5F03EFEE43DFD33D0E0FB5007C3
:100206000BBB000F0202D0EC2CFCEF33FFEE33FEEB
:06021600ED33FD0202A819
:10021C0075F020800E75F010800575F0087D007E5D
:10022C00007F003392D530D5031204A0EC3340107C
:10023C00EF33FFEE33FEED33FDEC33FCD5F0ED2266
:0E024C00E5F0247EA2D513CC92E7CDCEFF22A2
:10025A00EDD2E7CD33EC3392D524814006E4FFFE9C
:10026A00FDFC22FCE4CFCECDCC24E0501174FF80FB
:10027A00EDC3CC13CCCD13CDCE13CECF13CF047098
:07028A00F030D5DE0204A0F4
:10029100E9D2E7C933E833F892D5EDD2E7CD33ECB3
:0702A10033FC5002B2D5222C
:1002A800EC30E7100FBF000C0EBE00080DBD0004B7
:1002B8000BEB6014A2D5EB13FCED92E7FD2274FF63
:1002C800FCFDFEFF22E480F8A2D574FF13FC7D80BC
:0302D800E480EFD0
:03000000020B2CC4
:0C0B2C00787FE4F6D8FD758196020B730B
:1002DB00E709F608DFFA8046E709F208DFFA803E05
:1002EB0088828C83E709F0A3DFFA8032E309F608F2
:1002FB00DFFA8078E309F208DFFA807088828C835A
:10030B00E309F0A3DFFA806489828A83E0A3F6080D
:10031B00DFFA805889828A83E0A3F208DFFA804CE7
:10032B0080D280FA80C680D4806980F280338010BE
:10033B0080A680EA809A80A880DA80E280CA803327
:10034B0089828A83ECFAE493A3C8C582C8CCC5839F
:10035B00CCF0A3C8C582C8CCC583CCDFE9DEE7806F
:10036B000D89828A83E493A3F608DFF9ECFAA9F0EE
:10037B00EDFB2289828A83ECFAE0A3C8C582C8CC44
:10038B00C583CCF0A3C8C582C8CCC583CCDFEADE5D
:10039B00E880DB89828A83E493A3F208DFF980CCBF
:1003AB0088F0EF60010E4E60C388F0ED2402B404B8
:1003BB000050B9F582EB2402B4040050AF2323455F
:0603CB00822390032B7356
:1003D100BB010689828A83E0225002E722BBFE022A
:0903E100E32289828A83E493225D
:1003EA00BB010CE58229F582E5833AF583E02250C8
:1003FA0006E92582F8E622BBFE06E92582F8E22212
:0D040A00E58229F582E5833AF583E493222B
:10041700F8BB010DE58229F582E5833AF583E8F01B
:10042700225006E92582C8F622BBFE05E92582C8C7
:02043700F222AF
:10043900EF8DF0A4A8F0CF8CF0A428CE8DF0A42ED7
:02044900FE2291
:10044B00BC000BBE0029EF8DF084FFADF022E4CC95
:10045B00F875F008EF2FFFEE33FEEC33FCEE9DEC5E
:10046B00984005FCEE9DFE0FD5F0E9E4CEFD22EDA4
:10047B00F8F5F0EE8420D21CFEADF075F008EF2FEE
:10048B00FFED33FD4007985006D5F0F222C398FDDF
:05049B000FD5F0EA227C
:0E04A000C3E49FFFE49EFEE49DFDE49CFC226D
:1004AE00EB9FF5F0EA9E42F0E99D42F0E89C45F0A4
:0104BE00221B
:0C04BF00E6FC08E6FD08E6FE08E6FF2269
:0D04CB00E6FB08E6F908E6FA08E6CBF822A1
:0C04D800ECF608EDF608EEF608EFF62250
:0604E4008A838982E473A3
:1004EA00EF4E6012EF60010EEDBB010B89828A8329
:1004FA00F0A3DFFCDEFA2289F05007F709DFFCA936
:0C050A00F022BBFEFCF309DFFCA9F0228C
:100B3800020FDAE493A3F8E493A34003F68001F2EA
:100B480008DFF48029E493A3F85407240CC8C333BE
:100B5800C4540F4420C8834004F456800146F6DF8D
:100B6800E4800B0102040810204080900A99E47E7A
:100B7800019360BCA3FF543F30E509541FFEE49382
:100B8800A360010ECF54C025E060A840B8E493A349
:100B9800FAE493A3F8E493A3C8C582C8CAC583CA74
:100BA800F0A3C8C582C8CAC583CADFE9DEE780BE2C
:010B2B0000C9
:00000001FF
