:1008FF00880B0A0A0A0A0A0A0A0A8800000000007E
:10090F00000000008308173B3702160000C105C125
:10091F0007C101C103011100C10001081EC102205E
:10092F004248FF08150000000A00000000FF041EE7
:10093F00000000C800000000FF0BD3000000010002
:10094F00000000FF0FCB0000012C00000000FF078C
:10095F0019000000A000000000FF0C1F0000012C78
:04096F000000000084
:100815007847E6640370030208FE120A9E788EEF9D
:10082500F618E66FFE5FFD788BF6EFF45E783CF622
:10083500788EE618F6ED24FB602A24FD60431460EB
:1008450054240570627847E62401FFE433FE7C00FA
:100855007D03120353AF057847EFF66401704878BE
:100865008AF680437847E66401703C788AE624017D
:10087500FFE433FE7C007D03120353788AA60580CE
:10088500267847E6B402200508E508D394634017A7
:10089500E4F50880127847E6B4020C1508E508D39C
:1008A50094C840037508637847E66401704B788AFD
:1008B500E66402704408E6B40902D206783CE664B0
:1008C500097036C3E50E94D0E50D94074024E4F590
:1008D50015F50BF50CF51BF51CF514F509F50AF5E1
:1008E50019F51AFE7F02FDFB7A0079161203F2E470
:0A08F500F511C206E4F50DF50E2220
:10041E007847E61460521470030205AC14700302A0
:10042E0005CB240360030206177810740BF2780DC7
:10043E00F27808E2FF75F00A84780BF2EF75F00A95
:10044E008408E5F0F27809E2FF75F00A84780EF27E
:10045E00EF75F00A8408E5F0F2780AE2FF75F00A0B
:10046E00847811F2EF020607788AE6FF240C780BE7
:10047E00F2EF14606B14700302055C240260030239
:10048E000617780C740AF2E511D394004050E51566
:10049E0075F00A8475F00A8408E5F0F2E51575F03A
:1004AE000A8408E5F0F208740BF2AE0BAF0C7C0078
:1004BE007D641203537C007D0A1203537810EDF213
:1004CE00AE0BAF0C7C007D0A1203537C007D0A122A
:1004DE000353ED242E7811F2AE0BAF0C805C8066C8
:1004EE00780C740AF2E511D39400405AE51475F0B5
:1004FE000A8475F00A8408E5F0F2E51475F00A84B2
:10050E0008E5F0F208740BF2AE09AF0A7C007D64C8
:10051E001203537C007D0A1203537810EDF2AE09DC
:10052E00AF0A7C007D0A1203537C007D0A1203532E
:10053E00ED242E7811F2AE09AF0A7C007D0A12036B
:10054E00537812EDF222780D740AF2088046E51106
:10055E0075F00A8475F00A84780CE5F0F2E51175F1
:10056E00F00A8408E5F0F2E511D394004022E51676
:10057E0075F00A8408F2E51675F00A8408E5F0F2C3
:10058E0008740BF2E51775F00A8408F2E517806916
:10059E00780E740AF208F208F208F208F222780BCA
:1005AE00740FF27810740AF218F218F218F218F2A8
:1005BE00E50875F00A847811F2E508803C780B7432
:1005CE0010F2780D740AF218F2E51075F00A8475BF
:1005DE00F00A84780EE5F0F2E51075F00A8408E56D
:1005EE00F0F208740BF2300019E50F75F00A8475FD
:1005FE00F00A8408E5F0F2E50F75F00A8408E5F0DC
:0A060E00F22278127411F218F222A1
:100BD300E4FF7847E6B507047E0180027E007400D7
:100BE3002FF8EEF20FBF02EA7847E6B403047F0161
:100BF30080027F007802EFF2A204E43308F2E50FEB
:100C0300B4FF047F0180027F007804EFF2A202E4C4
:0C0C13003308F27BFE7A007900020A2010
:090FCB007BFE7A007908020CEFAC
:100719003003030208147F41120E35EF75F064A40B
:10072900FFAEF07C007D331203537845EEF608EFF7
:10073900F6D394FAEE94004004D2058002C2053043
:100749000503020810200703020810D201D203E4AE
:10075900783FF608F67847E6F51876037844E6F523
:100769001018E6F50F200003020810200103020803
:1007790010051178167C007D007BFE7A0079087ED1
:10078900007F021202B3E510D395154004AF108023
:1007990002AF158F15E510251CF51CE4351BF51B5B
:1007A900FEAF1C7C007D0A120341E511FB7A00FDB6
:1007B9001203538E0B8F0CE50FD395144004AF0F22
:1007C9008002AF148F14E50F251AF51AE43519F5CF
:1007D90019FEAF1A7C007D0A120341AD03AC021267
:1007E90003538E098F0AE511C394024012E510D311
:1007F9009513400BE50FD395124004D2028002C233
:0C08090002851013850F12A20592072231
:100C1F00120CB41201627844A6077841E6FE08E68A
:100C2F00FFC394C8EE94004009D3EF94D0EE94071D
:100C3F004007784376FFC20022EF2438FFEE34FFDF
:100C4F00FEEF7803C333CE33CED8F9FF7C007DB4EB
:0C0C5F00120353EF240A7843F6D200225F
:100F6B00538E7F5389F0438905E4F58AF58CC28D46
:030F7B00D28C22F3
:100F4200538EBF53890F758B18758DFCC28FD28E4D
:050F5200D2ABD2AF227A
:03001B00020618C2
:10061800C0E0C0F0C083C082C0D075D000C000C0A8
:1006280001C002C003C004C005C006C0077890120C
:1006380003C7EF2401FFE43EFEE43DFDE43CFC7803
:10064800901203E0783D0806E6187001068606C396
:1006580094E8EE94034018783D7600087600AF8C55
:10066800EFAD8A7841F6ED08F6758C00758A003092
:100678000617050EE50E7002050DC394D0E50D941E
:10068800074006750D07750ED0788F06E65407F6F5
:10069800E6FF240BF8E2FED394144008EE24D2FDC2
:1006A800D208800B788FE6FF240BF8E2FDC208120F
:1006B8000C6B7844E6D395084012051DE51D94643B
:1006C800400F751D00A204B392048005751D00C279
:1006D80004300122783F0806E6187001068606C332
:1006E80094B8EE940B400FC201C203783F7600081D
:1006F80076007847A618D007D006D005D004D003D6
:10070800D002D001D000D0D0D082D083D0F0D0E0B9
:0107180032AE
:050FD400788C76062276
:0B0B1400E4F534E534C3788C9650669D
:100B1F0078901203C78F388E378D368C35E5347544
:100B2F00F00BA4244FF81203D3C3E5389BFFE5372E
:100B3F009AFEE53699FDE53598FCE53475F00BA482
:100B4F00244BF81203D3D31203B65026AF38AE3767
:100B5F00AD36AC35E53475F00BA4244FF81203E035
:100B6F00E53475F00BA42448F808E6FA08E6F91204
:020B7F0003EC85
:040B81000534809225
:010B8500224D
:100E9C00120E5B7BFE7A007908120B86120CB412D0
:0D0EAC000F6B120F42120FD4120B1480FBBB
:100E5B007580FFE5A0541F44E0F5A0E5A0541FF5F5
:100E6B00A0E4F580E5A0541F44A0F5A0E5A0541F15
:020E7B00F5A0E0
:010E7D002252
:100A9E00E4FF20B00122C2C4D2C2D2B520B0027F80
:100AAE000720B1027F0620B2027F0520B3027F0429
:100ABE00D2C4D2C2D2B520B0037F0022D2C4C2C2E9
:100ACE00D2B520B0027F0B20B1027F0A20B2027F86
:100ADE000920B3027F08D2C4D2C2D2B520B0037FA0
:100AEE000022D2C4D2C2C2B520B0027F0F20B10202
:100AFE007F0E20B2027F0D20B3027F0CD2C4D2C271
:050B0E00D2B543B0EF79
:010B130022BF
:100973001222C0F9A4B0999282F88090FFBFC68971
:040983008E8C868848
:100C6B007580FFE5A0541F44E0F5A0E5A0541FFEDE
:100C7B00F5A0A8077401088002C333D8FCF580E502
:100C8B00A0541F44C0F5A0E5A0541FF5A074222D5D
:100C9B00F8E6F58030080353807FE5A0541F44E04D
:080CAB00F5A0E5A0541FF5A01F
:010CB300221E
:0C0987000194000196FF0195000197FF0C
:100A2000E47894F69000011202F225E0FF1202D958
:100A30004FFF9000021202F225E025E04FFF9000E8
:100A4000031202F233333354F84FFF9000041202C2
:100A5000F2C454F04FFF9000051202F2C43354E088
:100A60004FFF9000061202F2C4333354C04FFF9080
:100A700000071202F2C433333354804F7894F6786F
:100A8000966660197894E6FFF4F580E5A0541F445B
:0D0A900080F5A0E5A0541FF5A07896A607FC
:010A9D002236
:060ED6008B398A3A893BCA
:100EDC007580FFE5A0541F4480F5A0E5A0541FF5D4
:050EEC00A0E47896F679
:010EF10022DE
:100D5B007895E6300A054410F6800354EFF6799740
:100D6B00E77895666016E6FFF580E5A0541F44A072
:0C0D7B00F5A0E5A0541FF5A07897A6078E
:010D87002249
:100D88007895E6300B054420F6800354DFF6799712
:100D9800E77895666016E6FFF580E5A0541F44A045
:0C0DA800F5A0E5A0541FF5A07897A60761
:010DB400221C
:100DB5007895E6300C054440F6800354BFF67997E4
:100DC500E77895666016E6FFF580E5A0541F44A018
:0C0DD500F5A0E5A0541FF5A07897A60734
:010DE10022EF
:100F7E00E4FEC297EF1392A3EFC313FFD2970EBEF8
:020F8E0008F069
:010F9000223E
:100F5700C29300C29700D29300120F7EAF05120F03
:040F67007EC2932291
:100D2700E4FDC29300C29700D29300120F7EE4FF46
:100D3700C297EDC313FD30A303430580D2970FBFBE
:100D470008EEC29300C29700D29700C2A300D2A3B5
:030D570000AF05E5
:010D5A002276
:060B86008B348A3589362C
:100B8C00E4FD7F8E120F577D807F80120F57E4FC9F
:100B9C00EC25E0FFC374849FFFAB34AA35A9368CD7
:100BAC00827583001202F2FE75F00A84C454F0FDC3
:100BBC00EE75F00A84ED25F0FD120F570CBC03D036
:070BCC007D807F8E020F57B0
:060CEF008B348A358936C2
:100CF500C2AFE4FCEC25E0FFC374859FFF120D270E
:100D0500EFC4540F75F00AA4FEEF540F2EAB34AAAE
:100D150035A9368C8275830012031F0CBC03D5D20E
:010D2500AF1E
:010D260022AA
:040FB300D2A07F0544
:080FB70000AE071FEE70F922E5
:0F0FA400D2A1120FB3C2A17F05120FB7C2A022B4
:0C0FBF00C2A1120FB3D2A17F05020FB730
:020DE200AD075B
:100DE400E4FCC2A07F05120FB7ED30E704D2A18066
:100DF40002C2A17F05120FB7D2A0ED25E0FD7F0549
:090E0400120FB70CBC08DBC2A000
:010E0D0022C2
:100EB900E4FC120FB3ED25E0FD30A103430501C2A7
:0C0EC900A07F05120FB70CBC08E8AF05B5
:010ED50022FA
:0A0EF200AB07120FA47F90120DE26F
:100EFC00120FB3A2A1E433FDC2A07F05120FB7AF4E
:010F0C0005DF
:010F0D0022C1
:10000300C2A0EF24FF92A17F05120FB7120FB3C254
:08001300A0D2A17F05020FB786
:100E3500120EF2AF03120DE2120EFC120FA47F91F7
:100E4500120DE2120EFC120EB9AD077F011200035E
:050E5500120FBFAF0504
:010E5A002275
:100F9100120EF27F40120DE2120EFCAF03120DE2AF
:030FA100020EFC41
:040F0E007F057E00DD
:100F1200EF1FAA0670011E4A600BE4FDEDC3940C9C
:050F220050EE0D80F708
:010F270022A7
:020E7E00A907C2
:100E8000E4FBC294E9139294120F0ED294E9C313B7
:0C0E9000F90BBB08ED7F057E00020F127D
:100F2800E4FBC294ECC313FCD294309403430480D2
:090F3800120F0E0BBB08EBAF0415
:010F4100228D
:100E0E00C209D2947F0C7E00120F12C2947F507EC4
:100E1E0000120F12D2947F0A7E00120F12A2949229
:060E2E0009120F0EA209DB
:010E3400229B
:100CB400120E0E7FCC120E7E7F44120E7E7FC87EF3
:100CC40000120F12120E0E7FCC120E7E7FBE120E79
:100CD4007E120F28A907120F28EFAD01FCEC1201B8
:0B0CE40029E4FBFA7980783D02001E35
:10001E00EC4D6011E8497017ED33EC3304600DE4DC
:10002E00FCFFFEFD22E933E8330470F80201CE1224
:10003E00019958046009E4CC248150062850090225
:10004E0001D82840030201D5C0E0EB4A7044B980C4
:10005E0006D0E0FB0201C4EF4E701CBD8008EBFF22
:10006E00EAFEE9FD80EBE98DF0A4FEE5F002010762
:10007E00E9CDF9EAFEEBFFEF89F0A4FCE5F0CE89BD
:10008E00F0A42EFFE435F0CD89F0A42DFEE435F07A
:10009E008067EF4E7005BD80D780C3EF8BF0A4ACA8
:1000AE00F0EE8BF0A42CFCE435F0F8EF8AF0A42CE3
:1000BE00E5F038FCE433CB8DF0A42CFCE5F03BF8F6
:1000CE00EE8AF0A42CFCE5F038F8E433CF89F0A4E6
:1000DE002CFCE5F038CF3400CE89F0A42FFFE5F0EC
:1000EE003EFEE433C98DF0A42EFEE5F039CD8AF044
:1000FE00A42FFFE5F03EFEE43DFD33D0E0FB5007BC
:10010E000BBB000F0201D8EC2CFCEF33FFEE33FEDD
:06011E00ED33FD0201B00B
:1001240075F020800E75F010800575F0087D007E56
:10013400007F003392D530D5031203A8EC3340106E
:10014400EF33FFEE33FEED33FDEC33FCD5F0ED225F
:0E015400E5F0247EA2D513CC92E7CDCEFF229B
:10016200EDD2E7CD33EC3392D524814006E4FFFE95
:10017200FDFC22FCE4CFCECDCC24E0501174FF80F4
:10018200EDC3CC13CCCD13CDCE13CECF13CF047091
:07019200F030D5DE0203A8E6
:10019900E9D2E7C933E833F892D5EDD2E7CD33ECAC
:0701A90033FC5002B2D52225
:1001B000EC30E7100FBF000C0EBE00080DBD0004B0
:1001C0000BEB6014A2D5EB13FCED92E7FD2274FF5C
:1001D000FCFDFEFF22E480F8A2D574FF13FC7D80B5
:0301E000E480EFC9
:030000000209945E
:0C099400787FE4F6D8FD7581970209DB3E
:1001E300E709F608DFFA8046E709F208DFFA803EFE
:1001F30088828C83E709F0A3DFFA8032E309F608EB
:10020300DFFA8078E309F208DFFA807088828C8352
:10021300E309F0A3DFFA806489828A83E0A3F60806
:10022300DFFA805889828A83E0A3F208DFFA804CE0
:1002330080D280FA80C680D4806980F280338010B7
:1002430080A680EA809A80A880DA80E280CA803320
:1002530089828A83ECFAE493A3C8C582C8CCC58398
:10026300CCF0A3C8C582C8CCC583CCDFE9DEE78068
:100273000D89828A83E493A3F608DFF9ECFAA9F0E7
:10028300EDFB2289828A83ECFAE0A3C8C582C8CC3D
:10029300C583CCF0A3C8C582C8CCC583CCDFEADE56
:1002A300E880DB89828A83E493A3F208DFF980CCB8
:1002B30088F0EF60010E4E60C388F0ED2402B404B1
:1002C3000050B9F582EB2402B4040050AF23234558
:0602D30082239002337348
:1002D900BB010689828A83E0225002E722BBFE0223
:0902E900E32289828A83E4932256
:1002F200BB010CE58229F582E5833AF583E02250C1
:1003020006E92582F8E622BBFE06E92582F8E2220A
:0D031200E58229F582E5833AF583E4932224
:10031F00F8BB010DE58229F582E5833AF583E8F014
:10032F00225006E92582C8F622BBFE05E92582C8C0
:02033F00F222A8
:10034100EF8DF0A4A8F0CF8CF0A428CE8DF0A42ED0
:02035100FE228A
:10035300BC000BBE0029EF8DF084FFADF022E4CC8E
:10036300F875F008EF2FFFEE33FEEC33FCEE9DEC57
:10037300984005FCEE9DFE0FD5F0E9E4CEFD22ED9D
:10038300F8F5F0EE8420D21CFEADF075F008EF2FE7
:10039300FFED33FD4007985006D5F0F222C398FDD8
:0503A3000FD5F0EA2275
:0E03A800C3E49FFFE49EFEE49DFDE49CFC2266
:1003B600EB9FF5F0EA9E42F0E99D42F0E89C45F09D
:0103C6002214
:0C03C700E6FC08E6FD08E6FE08E6FF2262
:0D03D300E6FB08E6F908E6FA08E6CBF8229A
:0C03E000ECF608EDF608EEF608EFF62249
:0603EC008A838982E4739C
:1003F200EF4E6012EF60010EEDBB010B89828A8322
:10040200F0A3DFFCDEFA2289F05007F709DFFCA92E
:0C041200F022BBFEFCF309DFFCA9F02285
:1009A000020E9CE493A3F8E493A34003F68001F2C3
:1009B00008DFF48029E493A3F85407240CC8C33358
:1009C000C4540F4420C8834004F456800146F6DF27
:1009D000E4800B01020408102040809008FFE47EB0
:1009E000019360BCA3FF543F30E509541FFEE4931C
:1009F000A360010ECF54C025E060A840B8E493A3E3
:100A0000FAE493A3F8E493A3C8C582C8CAC583CA0D
:100A1000F0A3C8C582C8CAC583CADFE9DEE780BEC5
:010993000063
:00000001FF
